:1000000016C030C02FC02EC084C02CC02BC02AC048
:1000100029C028C027C026C025C024C023C0010293
:1000200004081020010101010101003800371124EA
:100030001FBECFE5D2E0DEBFCDBF10E0A0E6B0E04E
:10004000E6E5F3E002C005900D92AA36B107D9F7B4
:1000500020E0AAE6B0E001C01D92A337B207E1F7A5
:1000600074D177C1CDCFCF93DF9360E080E0FFD034
:10007000C0E6D0E080E0CA36D80729F08881229611
:1000800061E0F5D0F7CFDF91CF9108951F93CF9323
:10009000DF93182FC9E1D0E061E0812F26D161E024
:1000A00070E080E090E0A5D060E0812F1ED163E099
:1000B00070E080E090E09DD0219771F7DF91CF91C3
:1000C0001F910895CF93DF93C0E6D0E080E0CA3659
:1000D000D80721F089919991D9DFF8CFCAE6D0E00D
:1000E0009A918A91D3DF80E0C036D807C9F7DF91B3
:1000F000CF91089583B7887F83BF8AB58C7F816055
:100100008ABD83B7877F83BF83B7887F836083BFC0
:1001100008951F920F920FB60F9211242F933F93C1
:100120008F939F93AF93BF9380916B0090916C00DE
:10013000A0916D00B0916E0030916A0026E0230F0F
:100140002D3730F029E8230F0396A11DB11D03C000
:100150000296A11DB11D20936A0080936B009093BD
:100160006C00A0936D00B0936E0080916F00909131
:100170007000A0917100B09172000196A11DB11D97
:1001800080936F0090937000A0937100B093720001
:10019000BF91AF919F918F913F912F910F900FBE83
:1001A0000F901F9018953FB7F89480916F00909131
:1001B0007000A0917100B09172002FB508B602FED8
:1001C00005C02F3F19F00196A11DB11D3FBFBA2FE9
:1001D000A92F982F8827820F911DA11DB11DBC0149
:1001E000CD0143E0660F771F881F991F4A95D1F70D
:1001F0000895CF92DF92EF92FF92CF93DF936B013E
:100200007C01D1DFEB01C114D104E104F10471F0F0
:10021000CADF6C1B7D0B683E7340A8F381E0C81AEF
:10022000D108E108F108C851DC4FEDCFDF91CF9143
:10023000FF90EF90DF90CF900895789480B780681A
:1002400080BF80B7806480BF8CB580648CBD8FEF29
:100250008DBD80B7807F876080BF89B7846089BF8C
:1002600049DF86B1887F866086B9379A0895CF9333
:10027000DF93A82FB0E0FD01E25EFF4F8491FD0106
:10028000EC5DFF4FA491AA2369F1B0E0FD01E45DAC
:10029000FF4FE491CE2FD0E0FD01E65DFF4FA4912A
:1002A000B0E061110BC02FB7F8949881E82FE0956A
:1002B000892F8E2388838C91E8230BC0623061F4F0
:1002C0002FB7F8943881982F909593239883EC91C9
:1002D000E82BEC932FBF06C09FB7F894E881E82B7A
:1002E000E8839FBFDF91CF910895282F30E0F90177
:1002F000E25EFF4F9491F901EC5DFF4FE491EE2334
:1003000019F1811103C08AB58F7304C0813021F4C3
:100310008AB58F7C8ABD05C0843019F48CB58F7C7A
:100320008CBDF0E0E65DFF4FA491B0E08FB76111A6
:1003300006C0F8942C91E92FE095E22303C0F894CD
:10034000EC91E92BEC938FBF089577DF8CDEBADE5A
:06035000FECFF894FFCF80
:0A0356000200010000000300040093
:00000001FF
