:100000002CC046C045C012C543C0F4C141C040C069
:100010003FC03EC03DC03CC0CFC13AC039C005A8BA
:100020004CCDB2D44EB93836A9020C50B99186885D
:10003000083CA6AAAA2ABE000000803F01020000D8
:100040000400010204081020020202020202000061
:100050000000380000000000370011241FBECFE56B
:10006000D2E0DEBFCDBF10E0A0E6B0E0E6EDF2E109
:1000700002C005900D92A836B107D9F720E0A8E696
:10008000B0E001C01D92A538B207E1F757D521C9EC
:10009000B7CFCF92DF92EF92FF920F931F93CF9340
:1000A000DF93082F162F61E0812F26D3C9E1D0E01E
:1000B000C12CD12C7601802F49D2AC01662757FD87
:1000C0006095762FC40ED51EE61EF71E219799F770
:1000D00060E0812F11D3C701B60129E130E040E093
:1000E00050E0F3D7C901DF91CF911F910F91FF909D
:1000F000EF90DF90CF9008950F931F9362E081E01F
:10010000C8DF90936B0080936A0020916400309167
:10011000650082179307D4F561E081E0EDD200E03D
:1001200010E0980148EC50E060E070E080E02CD3F3
:100130006AE070E080E090E0CCD180E050D481E0D3
:1001400090916900911180E080936900882321F0EB
:1001500010926F0010926E0062E081E09ADF2091B1
:100160006400309165008217930734F464E670E010
:1001700080E090E0AED1F0CF60E081E0BDD26AEFE8
:1001800070E080E090E0A5D181E001C080E01F91A7
:100190000F910895379885B7877E806185BF85B7B1
:1001A000806285BF85B7806285BF889585B78F7D62
:1001B00085BF85B78F7D85BF379A08954F925F922F
:1001C0006F927F928F929F92AF92BF92CF92DF9267
:1001D000EF92FF920F931F93CF93DF93809169006B
:1001E000882309F493C0C0E0D0E0BE01882777FDE2
:1001F0008095982FACD520E030E048EC52E40CD547
:1002000008D56B017C0120E030E0A90165D6181605
:1002100024F4F7FAF094F7F8F09420E030E040E8A6
:100220005FE3C701B60191D420E030E04FE753E42B
:1002300057D66B017C0160DF80916900811112C08B
:1002400060E081E059D280916E0090916F0001963C
:1002500090936F0080936E0020916800222309F430
:1002600046C05BC080916800811130C020E030E062
:1002700040E251E4C701B6012FD618160CF562E32F
:1002800070E080E090E038D42B013C0120E030E0C9
:1002900048E453E4C701B60158D44B015C01C301E3
:1002A000B20155D59B01AC01C501B4014ED421D595
:1002B000AB01BC0100E010E0980180E065D206C00F
:1002C00080E08DD360E081E017D205C0C701B601A0
:1002D0000BD581E05AD165E070E080E090E0F9D084
:1002E0002196CB3381E0D80709F07FCFA9CF0597BE
:1002F000A1F41092690010926F0010926E0010929B
:100300006D0010926C0080E06AD307C062E370E079
:1003100080E090E0DED03EDFEFDE64E670E080E07B
:1003200090E0DF91CF911F910F91FF90EF90DF90C0
:10033000CF90BF90AF909F908F907F906F905F9085
:100340004F90C7C08A30910514F089E090E0282FC3
:10035000277008970CF02062206184B7877F84BFE4
:1003600081B5886181BD21BD81B5806481BD08955D
:1003700080E0E9D060E081E075D160E083E072D197
:1003800061E081E06FD184E090E0DCDF80E090E02C
:100390008AD780936800B0DE882351F061E08091B5
:1003A0006800811160E06093680080E090E083D78E
:1003B00081E08093690008951F920F920FB60F920B
:1003C00011248F9381E0809366008F910F900FBE70
:1003D0000F901F90189580B7807F80BF80B780688E
:1003E00080BF8CB580648CBD8FEF8DBD80B787607A
:1003F00080BF08951F920F920FB60F9211242F9372
:100400003F938F939F93AF93BF938091710090918F
:100410007200A0917300B09174003091700026E0DA
:10042000230F2D3730F029E8230F0396A11DB11DAE
:1004300003C00296A11DB11D20937000809371002E
:1004400090937200A0937300B09374008091750034
:1004500090917600A0917700B09178000196A11D4F
:10046000B11D8093750090937600A0937700B093B0
:100470007800BF91AF919F918F913F912F910F90F5
:100480000FBE0F901F9018953FB7F894809175009C
:1004900090917600A0917700B091780022B708B6CD
:1004A00001FE05C02F3F19F00196A11DB11D3FBFF0
:1004B0006627782F892F9A2F620F711D811D911D3C
:1004C00043E0660F771F881F991F4A95D1F708955B
:1004D0000895CF92DF92EF92FF92CF93DF936B015B
:1004E0007C01D2DFEB01C114D104E104F10479F005
:1004F000EFDFCADF6C1B7D0B683E7340A0F381E029
:10050000C81AD108E108F108C851DC4FF2CFDF91D9
:10051000CF91FF90EF90DF90CF9008958AB58260E1
:100520008ABD8AB581608ABD83B7887F836083BFB7
:10053000789489B7826089BF4EDF86B188778668F4
:1005400086B9379A08958093790008958F709091B5
:1005500079009295990F990F907C982B97B987B154
:100560009091790092FB222720F930E094E0220F4D
:10057000331F9A95E1F7822B87B9369A3699FECFC9
:1005800084B125B190E0922B08951F93CF93DF9310
:10059000182FEB0161E066D01C161D0614F060E018
:1005A00004C0CF3FD10534F061E0812FDF91CF91BE
:1005B0001F91A2C0E12FF0E0E45CFF4FE491E13035
:1005C00041F48AB580688ABD8AB58F7B8ABDC9BD72
:1005D00022C0E23041F48AB580628ABD8AB58F7E3E
:1005E0008ABDC8BD18C0E33041F480B7806280BFC7
:1005F00080B78F7E80BFCEBD0EC0E43041F48CB595
:1006000080628CBD8CB58F7E8CBDCBBD04C0C038E4
:10061000D10554F6C4CFDF91CF911F910895813059
:1006200031F48AB58F778ABD8AB58F7B07C0823057
:1006300039F48AB58F7D8ABD8AB58F7E8ABD0895CB
:10064000833039F480B78F7D80BF80B78F7E80BFC5
:100650000895843031F48CB58F7D8CBD8CB58F7E40
:100660008CBD0895CF93DF9387FF0FC08F7741F044
:10067000813041F0823041F0833039F08FEF05C096
:1006800085E003C082E001C084E090E0FC01EE5B05
:10069000FF4F2491FC01E85BFF4F8491882349F1CF
:1006A00090E0880F991FFC01EC5AFF4FA591B4917F
:1006B000825B9F4FFC01C591D4919FB7611108C027
:1006C000F8948C91209582238C93888182230AC090
:1006D000623051F4F8948C91322F309583238C93AF
:1006E0008881822B888304C0F8948C91822B8C9310
:1006F0009FBFDF91CF9108950F931F93CF93DF9307
:100700001F92CDB7DEB787FF0FC08F7741F08130E2
:1007100041F0823041F0833039F08FEF05C085E041
:1007200003C082E001C084E0282F30E0F901E45CDE
:10073000FF4F8491F901EE5BFF4F1491F901E85BE3
:10074000FF4F04910023D1F0882319F0698367DFFC
:100750006981E02FF0E0EE0FFF1FE25BFF4FA591F4
:10076000B4919FB7611105C0F8948C9110958123C5
:1007700003C0F8948C91812B8C939FBF0F90DF91D5
:10078000CF911F910F9108958F929F92AF92BF9238
:10079000CF92DF92EF92FF920F931F93CF93DF934D
:1007A000C82F6A017B014801590180916700C81375
:1007B00013C040917A0050917B0060917C00709151
:1007C0007D004C155D056E057F0531F401151105A1
:1007D0002105310509F4F6C0C0927A00D0927B0061
:1007E000E0927C00F0927D008F3F99F510BE8CB5B1
:1007F00081788CBD1FBC1EBC1BBC1DBC89B78B790E
:1008000089BF88B7846688BF80B7806880BF80B79B
:100810008F7B80BF8CB58F7B8CBD8C2F90E0FC01D3
:10082000E45CFF4F2491233009F48DC024912430DF
:1008300009F0A9C088C0E33009F095C080B78F7D6A
:1008400080BF80B7806180BF61E08C2F0BDFC093D9
:100850006700D0916700DC13B5C080B7807F80BF90
:100860001FBCC114D104E104F10409F457C060E0D5
:1008700079E08DE390E0A701960105D4C1E02F3F18
:1008800031054105510549F040F0CF3031F0CF5FDF
:100890005695479537952795F2CF8FEF820F8DBDEF
:1008A000DA01C9010197A109B1098EBD8114910432
:1008B000A104B104C9F0C501B401660F771F881FF8
:1008C000991FA70196011FD4B901CA0128EE33E090
:1008D00040E050E0D8D320938100309382004093D1
:1008E0008300509384006AC08FEF9FEFDC018093F8
:1008F000810090938200A0938300B0938400ED2F39
:10090000F0E0E45CFF4F8491833021F0E491E43027
:1009100009F054C080B78C2B80BF54C089B7806465
:1009200089BF89B78B7989BF60E08C2FDF91CF9128
:100930001F910F91FF90EF90DF90CF90BF90AF90FD
:100940009F908F90D9CE1092800010927F001092CD
:100950007E00E491E13009F06ECF8AB58F778ABDD1
:100960008AB5806407C0E23039F48AB58F7D8ABDCC
:100970008AB580618ABD68CF8CB58F7D8CBD8CB502
:1009800080618CBD61CFFC01E85BFF4FE491F0E03A
:10099000EE0FFF1FE25BFF4F2591349130938000F3
:1009A00020937F00FC01EE5BFF4F849180937E00DB
:1009B00080B78F7C80BF8CB58F7CE3CF89B7806494
:1009C00089BFA8CFDF91CF911F910F91FF90EF903A
:1009D000DF90CF90BF90AF909F908F9008959091AF
:1009E00067009F3F11F1981711F08F3FF1F489B71D
:1009F0008B7989BF80B7807F80BFE0917F00F091C5
:100A00008000309759F020917E00808190E030E0A6
:100A10002095309582239323808304C060E08091E9
:100A200067006ADE8FEF8093670008951F920F9230
:100A30000FB60F9211242F933F934F935F936F93B1
:100A40007F938F939F93AF93BF93EF93FF93809187
:100A5000810090918200A0918300B0918400892B45
:100A60008A2B8B2B61F18091810090918200A09163
:100A70008300B0918400181619061A061B0614F597
:100A80008091810090918200A0918300B0918400B8
:100A90000197A109B1098093810090938200A093EE
:100AA0008300B09384008091810090918200A09196
:100AB0008300B0918400892B8A2B8B2B19F48FEF44
:100AC0008EDF09C090917E00E0917F00F091800060
:100AD000808189278083FF91EF91BF91AF919F9192
:100AE0008F917F916F915F914F913F912F910F90D7
:100AF0000FBE0F901F901895CF93DF9300D000D0BA
:100B0000CDB7DEB79B01AC0161157105810591057B
:100B100059F069833A834B835C83B8D329813A8146
:100B20004B815C81D2D203C060E070E0CB010F90BA
:100B30000F900F900F90DF91CF91089581B781BFF3
:100B4000EDDC16DC3BDBFECF5058BB27AA270ED0CE
:100B500078C141D130F046D120F031F49F3F11F4FB
:100B60001EF436C10EF4E095E7FB2CC1E92F8BD1C2
:100B700080F3BA17620773078407950718F071F4BA
:100B80009EF5A3C10EF4E0950B2EBA2FA02D0B01FC
:100B9000B90190010C01CA01A0011124FF27591BC2
:100BA00099F0593F50F4503E68F11A16F040A22FC8
:100BB000232F342F4427585FF3CF46953795279539
:100BC000A795F0405395C9F77EF41F16BA0B620B38
:100BD000730B840BBAF09150A1F0FF0FBB1F661F7F
:100BE000771F881FC2F70EC0BA0F621F731F841FC2
:100BF00048F4879577956795B795F7959E3F08F0E8
:100C0000B3CF9395880F08F09927EE0F97958795A6
:100C10000895F0D0E39526C10CD013C1E3D040F085
:100C2000DAD030F021F45F3F19F0CCC051114EC141
:100C3000CFC029D198F39923C9F35523B1F3951B5C
:100C4000550BBB27AA2762177307840738F09F5FED
:100C50005F4F220F331F441FAA1FA9F333D00E2E5C
:100C60003AF0E0E830D091505040E695001CCAF7C9
:100C700029D0FE2F27D0660F771F881FBB1F26178E
:100C800037074807AB07B0E809F0BB0B802DBF0161
:100C9000FF2793585F4F2AF09E3F510568F092C09E
:100CA00015C15F3FECF3983EDCF386957795679529
:100CB000B795F7959F5FC9F7880F911D9695879512
:100CC00097F90895E1E0660F771F881FBB1F621731
:100CD00073078407BA0720F0621B730B840BBA0BEF
:100CE000EE1F88F7E095089504D06894B111EEC026
:100CF0000895D1D088F09F5790F0B92F9927B75118
:100D0000A0F0D1F0660F771F881F991F1AF0BA95CF
:100D1000C9F712C0B13081F0D8D0B1E00895D5C084
:100D2000672F782F8827B85F39F0B93FCCF38695C5
:100D300077956795B395D9F73EF490958095709522
:100D400061957F4F8F4F9F4F0895E89409C097FB9F
:100D50003EF490958095709561957F4F8F4F9F4F92
:100D60009923A9F0F92F96E9BB279395F6958795D6
:100D700077956795B795F111F8CFFAF4BB0F11F499
:100D800060FF1BC06F5F7F4F8F4F9F4F16C0882340
:100D900011F096E911C0772321F09EE8872F762F76
:100DA00005C0662371F096E8862F70E060E02AF0B7
:100DB0009A95660F771F881FDAF7880F96958795A3
:100DC00097F9089597F99F6780E870E060E00895CB
:100DD0009FEF80EC089500240A9416161706180653
:100DE0000906089500240A9412161306140605062F
:100DF0000895EECF50D0E8F3E894E0E0BB279F578A
:100E0000F0F02AED3FE049EC06C0EE0FBB0F661F85
:100E1000771F881F28F0B23A62077307840728F00B
:100E2000B25A620B730B840BE3959A9572F7803874
:100E300030F49A95BB0F661F771F881FD2F7904832
:100E4000E0C0092E0394000C11F4882352F0BB0F6C
:100E500040F4BF2B11F460FF04C06F5F7F4F8F4FD2
:100E60009F4F0895EF93E0FF06C0A2EA2AED3FE00E
:100E700049EC5FEB7BDEE5DF0F90039401FC9058BB
:100E8000EEE1F0E0CAC057FD9058440F551F59F0ED
:100E90005F3F71F04795880F97FB991F61F09F3F67
:100EA00079F087950895121613061406551FF2CF90
:100EB0004695F1DF08C0161617061806991FF1CFE0
:100EC00086957105610508940895E894BB27662707
:100ED0007727CB0197F908956ED008F48FEF089526
:100EE0000AD0AFCF78DF28F07DDF18F0952309F026
:100EF00069CF6ECFEBCFC7DFA8F39923D9F3552382
:100F0000C9F3950F50E0551FAA27EE27FF27BB27EF
:100F100000240894679520F4E20FF31FB41F0A1E03
:100F2000220F331F441FAA1F6695A9F7779530F447
:100F3000F30FB41F0A1E121E08F46395330F441FEB
:100F4000AA1F221F769599F7879520F4B40F0A1EE1
:100F5000121E631F440FAA1F221F331F8695A9F775
:100F6000862F712D602D11249F5750408AF0E1F09B
:100F700088234AF0EE0FFF1FBB1F661F771F881FD5
:100F800091505040A9F79E3F510570F01BCF9ECF66
:100F90005F3FECF3983EDCF3869577956795B795C0
:100FA000F795E7959F5FC1F7FE2B880F911D9695EA
:100FB000879597F90895990F0008550FAA0BE0E857
:100FC000FEEF16161706E807F907C0F0121613060B
:100FD000E407F50798F0621B730B840B950B39F44B
:100FE0000A2661F0232B242B252B21F408950A26B1
:100FF00009F4A140A6958FEF811D811D08959F3FA3
:1010000031F0915020F4879577956795B795880FC3
:10101000911D9695879597F908959F938F937F9348
:101020006F93FF93EF939B01AC015ADFEF91FF9118
:1010300005D02F913F914F915F9152CFDF93CF9386
:101040001F930F93FF92EF92DF927B018C016894C4
:1010500005C0DA2EEF014FDFFE01E894A59125913E
:10106000359145915591AEF3EF0180DDFE01970179
:10107000A801DA9479F7DF90EF90FF900F911F911C
:10108000CF91DF910895A1E21A2EAA1BBB1BFD018F
:101090000DC0AA1FBB1FEE1FFF1FA217B307E40757
:1010A000F50720F0A21BB30BE40BF50B661F771FAF
:1010B000881F991F1A9469F760957095809590958F
:1010C0009B01AC01BD01CF010895052E97FB16F4DD
:1010D00000940FD057FD05D0D6DF07FC02D046F4B0
:1010E00008C050954095309521953F4F4F4F5F4F29
:1010F000089590958095709561957F4F8F4F9F4F84
:10110000089568940013E894A0E0B0E0E9E8F8E0FE
:101110001DC0EFEFE7F959016A015E23550FEE0894
:10112000FE2C87019B01AC019E23990F660B762F45
:10113000CB013BD0CDB7DEB7EAE024C02F923F927F
:101140004F925F926F927F928F929F92AF92BF92D7
:10115000CF92DF92EF92FF920F931F93CF93DF9383
:10116000CDB7DEB7CA1BDB0B0FB6F894DEBF0FBEE0
:10117000CDBF09942A88398848885F846E847D842D
:101180008C849B84AA84B984C884DF80EE80FD802F
:101190000C811B81AA81B981CE0FD11D0FB6F894A5
:1011A000DEBF0FBECDBFED010895DF93CF939F92B9
:1011B000A0E49A2E0024D001E001F00116950795D5
:1011C000F794E794D794C794B794A79448F4106819
:1011D000A20FB31FC41FD51FE61FF71F081E191E3D
:1011E000220F331F441F551F661F771F881F991F2B
:1011F0009A9421F79D01AE01BF01C00111249F9077
:10120000CF91DF910895A0E0B0E0E8E0F9E09CCF55
:10121000EC01688179818A819B8161157105810565
:10122000910521F464E279ED8BE597E02DE133EF50
:1012300041E050E04ADF49015A0127EA31E440E049
:1012400050E05FDF69017A01C501B4012CEE34EF93
:101250004FEF5FEF56DF89019A01C00ED11EE21EEB
:10126000F31EF7FE06C081E0C81AD108E10880E845
:10127000F80AC882D982EA82FB82C701B6019F7749
:10128000CDB7DEB7ECE07CCFBEDF089580E690E01E
:10129000BADF0895609360007093610080936200EC
:1012A000909363000895E199FECF9FBB8EBBE09AB7
:1012B00099278DB30895262FE199FECF1CBA9FBBC5
:1012C0008EBB2DBB0FB6F894E29AE19A0FBE019641
:0612D0000895F894FFCF21
:0812D60001000000B60301FF56
:00000001FF
