:1000000027C04BC04AC049C064C247C046C045C0B3
:1000100044C043C082C541C0D4C13FC03EC005A852
:100020004CCDB2D44EB93836A9020C50B99186885D
:10003000083CA6AAAA2ABE000000803F01020408CC
:1000400010200101010101010038003753025E0454
:1000500011241FBECFE5D2E0DEBFCDBF11E0A0E688
:10006000B0E0E4ECF3E102C005900D92A430B107DA
:10007000D9F721E0A4E0B1E001C01D92A732B20798
:10008000E1F710E0C0E5D0E003C02297FE0100D9FF
:10009000CC34D107D1F792D393C9B2CFCF92DF92AC
:1000A000EF92FF920F931F93CF93DF93082F162F9A
:1000B00061E0812F54D3C9E1D0E0C12CD12C76016D
:1000C000802FC2D2AC01662757FD6095762FC40EF3
:1000D000D51EE61EF71E219799F760E0812F3FD3CA
:1000E000C701B60129E130E040E050E05FD8C90126
:1000F000DF91CF911F910F91FF90EF90DF90CF9004
:10010000089562E081E0CADF9093070180930601C1
:1001100020916A0030916B0082179307C4F561E06B
:1001200081E01DD320E030E0A90168EC70E080E0C0
:10013000D6D36AE070E080E090E039D280E0C5D4A8
:1001400081E090910501911180E080930501882361
:1001500021F010920B0110920A0162E081E09EDF13
:1001600020916A0030916B008217930734F464E6A3
:1001700070E080E090E01BD2F0CF60E081E0EFD251
:100180006AEF70E080E090E012D281E0089580E0B4
:100190000895379885B7877E806185BF85B780626F
:1001A00085BF85B7806285BF889585B78F7D85BF00
:1001B00085B78F7D85BF379A08954F925F926F9272
:1001C0007F928F929F92AF92BF92CF92DF92EF92E7
:1001D000FF92CF93DF9380910501882309F499C0A2
:1001E000C0E0D0E0BE01882777FD8095982F20D60B
:1001F00020E030E048EC52E480D57CD56B017C01F6
:1002000020E030E0A901FDD6181624F4F7FAF094A6
:10021000F7F8F09420E030E040E85FE3C701B60172
:1002200005D520E030E04FE753E4EFD66B017C01C9
:1002300068DF8091050181110FC080910A019091C2
:100240000B01019690930B0180930A012091040108
:10025000222309F44FC064C080910401811139C088
:1002600020E030E040E251E4C701B601CAD61816DA
:100270006CF562E370E080E090E0B5D42B013C01C6
:1002800020E030E048E453E4C701B601CFD44B018D
:100290005C01C301B201CCD59B01AC01C501B40125
:1002A000C5D498D520E030E0A90180E018D320E043
:1002B00030E040EA51E4C701B601A3D6181614F4A1
:1002C00061E001C060E081E04AD208C080E0FDD377
:1002D00005C0C701B60179D581E0D4D165E070E0F1
:1002E00080E090E064D12196CB3381E0D80709F01B
:1002F00079CFA3CF0597A1F41092050110920B01BD
:1003000010920A01109209011092080180E0DDD3D9
:1003100007C062E370E080E090E049D13ADFF1DEAF
:1003200064E670E080E090E0DF91CF91FF90EF9085
:10033000DF90CF90BF90AF909F908F907F906F9005
:100340005F904F9034C18A30910514F089E090E0BD
:10035000282F277008970CF02062206184B7877FD0
:1003600084BF81B5886181BD21BD81B5806481BDB7
:10037000089580E066D160E081E0B9D160E083E07B
:10038000B6D161E081E0B3D184E090E0DCDF60E0F1
:1003900070E08CE091E086D080930401B2DE882387
:1003A00061F041E080910401811140E0409304013B
:1003B00060E070E08CE091E054D081E08093050132
:1003C00008951F920F920FB60F9211248F9381E020
:1003D00080936C008F910F900FBE0F901F90189517
:1003E00020910E0130910F012F5F3F4F30930F018D
:1003F00020930E01FC0180819181009719F08217F2
:1004000093071CF468EC70E009C080916D00909136
:100410006E00861797073CF46EE970E08AE191E080
:100420002AD280E0089581E00895EF92FF921F9311
:10043000CF93DF931F92CDB7DEB77B016F5F7F4F06
:100440004983CEDF182F4981882319F0642FC70113
:10045000A9D7812F0F90DF91CF911F91FF90EF903F
:100460000895E3CF80916D0090916E0086179707F5
:100470003CF46EE970E08AE191E0FDD180E00895FE
:1004800081E00895CF93DF93EB016F5F7F4FEADF49
:10049000882321F0CE01DF91CF917CC780E0DF91EE
:1004A000CF910895EFCF84E690E090930D01809373
:1004B0000C01089583B7887F83BF8AB58C7F8160E4
:1004C0008ABD83B7877F83BF83B7887F836083BFFD
:1004D00008951F920F920FB60F9211242F933F93FE
:1004E0008F939F93AF93BF938091110190911201CD
:1004F000A0911301B09114013091100126E0230F57
:100500002D3730F029E8230F0396A11DB11D03C03C
:100510000296A11DB11D20931001809311019093AB
:100520001201A0931301B0931401809115019091D1
:100530001601A0911701B09118010196A11DB11DDE
:100540008093150190931601A0931701B0931801A1
:10055000BF91AF919F918F913F912F910F900FBEBF
:100560000F901F9018953FB7F894809115019091C6
:100570001601A0911701B09118012FB508B602FE1F
:1005800005C02F3F19F00196A11DB11D3FBF662781
:10059000782F892F9A2F620F711D811D911D43E0C5
:1005A000660F771F881F991F4A95D1F70895CF923C
:1005B000DF92EF92FF92CF93DF936B017C01D3DF49
:1005C000EB01C114D104E104F10471F0CCDF6C1B28
:1005D0007D0B683E7340A8F381E0C81AD108E1089A
:1005E000F108C851DC4FEDCFDF91CF91FF90EF9034
:1005F000DF90CF90089513BE1ABC12BE19BC18BC70
:1006000089B7857E89BF88B78A6188BF53CF7894C0
:1006100080B7806880BF80B7806480BF8CB58064FD
:100620008CBD8FEF8DBD80B7807F876080BF89B71D
:10063000846089BF3FDF86B1887F866086B9379A3C
:100640000895809319010895863008F086503091FE
:10065000190127B1932F9295990F990F907C2F72C2
:10066000922B32FB332730F93295307F932B97B999
:1006700097B1907F982B97B9369A3699FECF84B16F
:1006800095B108951F93CF93DF93182FEB0161E08D
:100690002ED01C161D0614F060E004C0CF3FD1051B
:1006A00034F061E0812FDF91CF911F9158C011117B
:1006B00006C08AB58F7380688ABDC9BD14C0113069
:1006C00031F48AB58F7C80628ABDC8BD0CC01430FD
:1006D00031F48CB58F7C80628CBDCBBD04C0C0383A
:1006E000D105FCF6D9CFDF91CF911F910895CF931B
:1006F000DF93C82FD0E0FE01E45CFF4F8491FE0140
:10070000EE5BFF4FC491CC2339F1D0E0FE01E65BF4
:10071000FF4FA491B0E0FE01E85BFF4FC491D0E031
:100720002FB7611108C0F8949C91809598239C93F1
:10073000988198230AC0623051F4F8949C91382F24
:10074000309593239C939881982B988304C0F894B8
:100750009C91982B9C932FBFDF91CF910895A82F48
:10076000B0E0FD01E45CFF4F9491FD01EE5BFF4FB3
:10077000E491EE2311F1811103C08AB58F7304C097
:10078000813021F48AB58F7C8ABD05C0843019F48C
:100790008CB58F7C8CBDF0E0E85BFF4FA491B0E09E
:1007A0002FB7611105C0F8948C919095892303C0EF
:1007B000F8948C91892B8C932FBF089528DFD9DD75
:1007C000FCDCFECF0F931F93CF93DF93EC018B01E3
:1007D000F80161918F01662341F0E881F981019070
:1007E000F081E02DCE010995F3CFDF91CF911F91DC
:1007F0000F910895EF92FF920F931F93CF93DF9382
:100800007C018A01EB01060F171FC017D10751F0B9
:100810006991D701ED91FC910190F081E02DC70124
:100820000995F3CFDF91CF911F910F91FF90EF903A
:100830000895DC01ED91FC910190F081E02D642F91
:100840000994DC01ED91FC910280F381E02D099483
:10085000CF93DF93EC014DE050E060E070E0E9DF22
:100860004AE050E060E070E0CE01E3DF82E090E03B
:10087000DF91CF910895CF93DF93EC01E2DFCE01BA
:10088000DF91CF91E5CF0895089580E090E008953D
:100890008FEF9FEF08958FEF9FEF08950895DC018C
:1008A00012968D919C911397DC01ED91FC91028041
:1008B000F381E02D099581E090E00895EEE1F1E00B
:1008C0008EEE90E09183808386EF90E090931B0101
:1008D00080931A01F0931D01E0931C010895AF92DB
:1008E000BF92CF92DF92EF92FF921F93CF93DF934D
:1008F000182FEB0169017A0180916F008F3F09F099
:1009000040C013BE1ABC12BE19BC18BC89B7857E84
:1009100089BF88B78A6188BF8AB58C7F82608ABDAB
:1009200083B7877F83BF123078F410922201109230
:100930002101109220018AB5111103C08F738064C8
:100940001AC08F7C806117C0212F30E0F901EE5B67
:10095000FF4FE491F0E0E85BFF4FE491F0E0F093AB
:100960002201E0932101F901E45CFF4F24912093DF
:1009700020018AB58F708ABD61E0812FB8DE1093A7
:100980006F00A0906F00A11296C083B7887F83BFCD
:1009900012BE209709F480C0C031D10598F0CD3344
:1009A000D10590F0C43FD105A0F0CE3987E0D8073B
:1009B000A8F0CB3E8CE3D807B0F4A2E0BA2E28E032
:1009C00030E015C0C0E1D0E0F5E0BF2E20E034E01B
:1009D0000EC0E4E0BE2E20E031E009C073E0B72E87
:1009E00020E430E004C0BB24B39421E030E0BE0139
:1009F00080E090E0660F771F881F991F40E050E06D
:100A0000F1D3B22FA32FF42FE52F60E074E284EF2F
:100A100090E02B2F3A2F4F2F5E2FC8D32F5F3F4FE1
:100A20004F4F5F4F55954795379527956FEF620F5D
:100A300069BDC114D104E104F104C1F0BE01660F27
:100A4000771F80E090E0A7019601CED3B901CA01DB
:100A500028EE33E040E050E087D320932301309329
:100A6000240140932501509326010EC08FEF9FEF84
:100A7000DC018093230190932401A0932501B0937E
:100A8000260181E08A1518F489B7806189BF83B790
:100A9000887F8B2983BF0FC089B7857E89BF60E0BF
:100AA000812FDF91CF911F91FF90EF90DF90CF903A
:100AB000BF90AF9054CEDF91CF911F91FF90EF90F8
:100AC000DF90CF90BF90AF90089590916F009F3FBF
:100AD00019F1981711F08F3FF9F489B7857E89BF16
:100AE00083B7887F83BF87DDE0912101F0912201E8
:100AF000309759F020912001808190E030E02095DE
:100B0000309582239323808304C060E080916F003E
:100B100026DE8FEF80936F0008951F920F920FB61D
:100B20000F9211242F933F934F935F936F937F9373
:100B30008F939F93AF93BF93EF93FF938091230184
:100B400090912401A0912501B0912601892B8A2B37
:100B50008B2B61F18091230190912401A0912501BB
:100B6000B0912601181619061A061B0614F5809175
:100B7000230190912401A0912501B09126010197B4
:100B8000A109B1098093230190932401A093250129
:100B9000B09326018091230190912401A091250119
:100BA000B0912601892B8A2B8B2B19F48FEF8DDFC7
:100BB00009C090912001E0912101F09122018081F2
:100BC00089278083FF91EF91BF91AF919F918F9182
:100BD0007F916F915F914F913F912F910F900FBE39
:100BE0000F901F901895CF93DF9300D000D0CDB712
:100BF000DEB79B01AC01611571058105910559F0C6
:100C000069833A834B835C83B8D329813A814B81D2
:100C10005C81CCD203C060E070E0CB010F900F90FC
:100C20000F900F90DF91CF9108955058BB27AA27BE
:100C30000ED09CC165D130F06AD120F031F49F3FD5
:100C400011F41EF45AC10EF4E095E7FB50C1E92FF0
:100C5000AFD180F3BA17620773078407950718F0BE
:100C600071F49EF5C7C10EF4E0950B2EBA2FA02D9E
:100C70000B01B90190010C01CA01A0011124FF2749
:100C8000591B99F0593F50F4503E68F11A16F04044
:100C9000A22F232F342F4427585FF3CF4695379543
:100CA0002795A795F0405395C9F77EF41F16BA0B08
:100CB000620B730B840BBAF09150A1F0FF0FBB1FB6
:100CC000661F771F881FC2F70EC0BA0F621F731FFF
:100CD000841F48F4879577956795B795F7959E3F5C
:100CE00008F0B3CF9395880F08F09927EE0F9795EA
:100CF0008795089514D1E3954AC10CD037C107D127
:100D000040F0FED030F021F45F3F19F0F0C05111F7
:100D100072C1F3C04DD198F39923C9F35523B1F3B0
:100D2000951B550BBB27AA2762177307840738F05A
:100D30009F5F5F4F220F331F441FAA1FA9F333D0B9
:100D40000E2E3AF0E0E830D091505040E695001C6D
:100D5000CAF729D0FE2F27D0660F771F881FBB1F29
:100D6000261737074807AB07B0E809F0BB0B802D03
:100D7000BF01FF2793585F4F2AF09E3F510568F04F
:100D8000B6C039C15F3FECF3983EDCF386957795AA
:100D90006795B795F7959F5FC9F7880F911D969551
:100DA000879597F90895E1E0660F771F881FBB1FAD
:100DB000621773078407BA0720F0621B730B840B5A
:100DC000BA0BEE1F88F7E095089504D06894B1112E
:100DD00012C10895F5D088F09F5790F0B92F992748
:100DE000B751A0F0D1F0660F771F881F991F1AF036
:100DF000BA95C9F712C0B13081F0FCD0B1E00895C6
:100E0000F9C0672F782F8827B85F39F0B93FCCF346
:100E1000869577956795B395D9F73EF4909580952B
:100E2000709561957F4F8F4F9F4F0895E89409C04B
:100E300097FB3EF490958095709561957F4F8F4F0D
:100E40009F4F9923A9F0F92F96E9BB279395F69523
:100E5000879577956795B795F111F8CFFAF4BB0FA1
:100E600011F460FF1BC06F5F7F4F8F4F9F4F16C005
:100E7000882311F096E911C0772321F09EE8872F8F
:100E8000762F05C0662371F096E8862F70E060E04B
:100E90002AF09A95660F771F881FDAF7880F9695C4
:100EA000879597F90895990F0008550FAA0BE0E868
:100EB000FEEF16161706E807F907C0F0121613061C
:100EC000E407F50798F0621B730B840B950B39F45C
:100ED0000A2661F0232B242B252B21F408950A26C2
:100EE00009F4A140A6958FEF811D811D089597F902
:100EF0009F6780E870E060E008959FEF80EC0895C0
:100F000000240A94161617061806090608950024E8
:100F10000A9412161306140605060895EECF50D053
:100F2000E8F3E894E0E0BB279F57F0F02AED3FE0BC
:100F300049EC06C0EE0FBB0F661F771F881F28F015
:100F4000B23A62077307840728F0B25A620B730B38
:100F5000840BE3959A9572F7803830F49A95BB0F1D
:100F6000661F771F881FD2F79048BCC0092E0394D4
:100F7000000C11F4882352F0BB0F40F4BF2B11F486
:100F800060FF04C06F5F7F4F8F4F9F4F0895EF93B7
:100F9000E0FF06C0A2EA2AED3FE049EC5FEB57DE36
:100FA000E5DF0F90039401FC9058EEE1F0E0A6C05D
:100FB00057FD9058440F551F59F05F3F71F047950A
:100FC000880F97FB991F61F09F3F79F087950895EF
:100FD000121613061406551FF2CF4695F1DF08C00E
:100FE000161617061806991FF1CF8695710561052B
:100FF00008940895E894BB2766277727CB0197F9D3
:10100000089551DF08F48FEF08950AD0AFCF78DF4D
:1010100028F07DDF18F0952309F069CF6ECFEBCF74
:10102000C7DFA8F39923D9F35523C9F3950F50E0EF
:10103000551FAA27EE27FF27BB2700240894679592
:1010400020F4E20FF31FB41F0A1E220F331F441FA8
:10105000AA1F6695A9F7779530F4F30FB41F0A1EFF
:10106000121E08F46395330F441FAA1F221F7695A2
:1010700099F7879520F4B40F0A1E121E631F440FC0
:10108000AA1F221F331F8695A9F7862F712D602D69
:1010900011249F5750408AF0E1F088234AF0EE0F68
:1010A000FF1FBB1F661F771F881F91505040A9F775
:1010B0009E3F510570F01BCF9ECF5F3FECF3983EF3
:1010C000DCF3869577956795B795F795E7959F5FDC
:1010D000C1F7FE2B880F911D9695879597F9089576
:1010E0009F3F31F0915020F4879577956795B7959C
:1010F000880F911D9695879597F908959F938F93E3
:101100007F936F93FF93EF939B01AC017EDFEF9191
:10111000FF9105D02F913F914F915F9176CFDF9353
:10112000CF931F930F93FF92EF92DF927B018C017D
:10113000689405C0DA2EEF0173DFFE01E894A591F3
:101140002591359145915591AEF3EF0180DDFE017A
:101150009701A801DA9479F7DF90EF90FF900F9153
:101160001F91CF91DF910895A1E21A2EAA1BBB1BFC
:10117000FD010DC0AA1FBB1FEE1FFF1FA217B30763
:10118000E407F50720F0A21BB30BE40BF50B661F79
:10119000771F881F991F1A9469F76095709580953D
:1011A00090959B01AC01BD01CF010895052E97FBE1
:1011B00016F400940FD057FD05D0D6DF07FC02D0FF
:1011C00046F408C050954095309521953F4F4F4FBC
:1011D0005F4F089590958095709561957F4F8F4FE3
:1011E0009F4F089568940013E894A0E0B0E0EAEF00
:1011F000F8E01DC0EFEFE7F959016A015E23550FD2
:10120000EE08FE2C87019B01AC019E23990F660B13
:10121000762FCB0141D0CDB7DEB7EAE024C02F92C4
:101220003F924F925F926F927F928F929F92AF9276
:10123000BF92CF92DF92EF92FF920F931F93CF93C3
:10124000DF93CDB7DEB7CA1BDB0B0FB6F894DEBF5A
:101250000FBECDBF09942A88398848885F846E8480
:101260007D848C849B84AA84B984C884DF80EE80CA
:10127000FD800C811B81AA81B981CE0FD11D0FB6D3
:10128000F894DEBF0FBECDBFED010895EE0FFF1F36
:101290000590F491E02D0994DF93CF939F92A0E401
:1012A0009A2E0024D001E001F00116950795F794DD
:1012B000E794D794C794B794A79448F41068A20F02
:1012C000B31FC41FD51FE61FF71F081E191E220FCC
:1012D000331F441F551F661F771F881F991F9A943D
:1012E00021F79D01AE01BF01C00111249F90CF9154
:1012F000DF910895A0E0B0E0EFE7F9E096CFEC01D0
:10130000688179818A819B816115710581059105CB
:1013100021F464E279ED8BE597E02DE133EF41E0D4
:1013200050E044DF49015A0127EA31E440E050E04F
:1013300059DF69017A01C501B4012CEE34EF4FEF9A
:101340005FEF50DF89019A01C00ED11EE21EF31E2D
:10135000F7FE06C081E0C81AD108E10880E8F80A63
:10136000C882D982EA82FB82C701B6019F77CDB7D6
:10137000DEB7ECE076CFBEDF089586E690E0BADF18
:10138000089560936600709367008093680090935F
:1013900069000895E199FECF9FBB8EBBE09A992723
:1013A0008DB30895262FE199FECF1CBA9FBB8EBB4B
:1013B0002DBB0FB6F894E29AE19A0FBE01960895FC
:0413C000F894FFCFCF
:1013C40000002701800001000000B603010002FFB5
:1013D40043616E6E6F74206368616E676520636538
:1013E400696C696E672C2062656C6F772069737312
:1013F4007565642061646472657373657300417418
:1014040074656D707420746F207772697465206FD1
:10141400757473696465206F6620454550524F4D5D
:10142400206D656D6F7279004578636565646564E8
:10143400206D6178696D756D206E756D62657220C1
:101444006F662077726974657300000000004304BE
:101454004404000000004F04E203FA0345044B0473
:0414640048044E04E6
:00000001FF
