:1000000016C030C02FC02EC084C02CC02BC02AC048
:1000100029C028C027C026C025C024C023C0010293
:1000200004081020010101010101003800371124EA
:100030001FBECFE5D2E0DEBFCDBF10E0A0E6B0E04E
:10004000E4E4F3E002C005900D92AA36B107D9F7B7
:1000500020E0AAE6B0E001C01D92A337B207E1F7A5
:100060006BD16EC1CDCFCF93DF9360E080E0FDD048
:10007000C0E6D0E080E0CA36D80729F08881229611
:1000800061E0F3D0F7CFDF91CF9108951F93CF9325
:10009000DF93182FC9E1D0E061E0812F1ED161E02C
:1000A00070E080E090E0A3D060E0812F16D163E0A3
:1000B00070E080E090E09BD0219771F7DF91CF91C5
:1000C0001F910895CF93DF93C0E6D0E080E0CA3659
:1000D000D80721F089919991D9DFF8CFCAE6D0E00D
:1000E0009A918A91D3DF80E0C036D807C9F7DF91B3
:1000F000CF91089583B7887F83BF8AB58C7F816055
:100100008ABD83B7877F83BF83B7887F836083BFC0
:1001100008951F920F920FB60F9211242F933F93C1
:100120008F939F93AF93BF9380916B0090916C00DE
:10013000A0916D00B0916E0030916A0026E0230F0F
:100140002D3730F029E8230F0396A11DB11D03C000
:100150000296A11DB11D20936A0080936B009093BD
:100160006C00A0936D00B0936E0080916F00909131
:100170007000A0917100B09172000196A11DB11D97
:1001800080936F0090937000A0937100B093720001
:10019000BF91AF919F918F913F912F910F900FBE83
:1001A0000F901F9018953FB7F89480916F00909131
:1001B0007000A0917100B09172002FB508B602FED8
:1001C00005C02F3F19F00196A11DB11D3FBF662745
:1001D000782F892F9A2F620F711D811D911D43E089
:1001E000660F771F881F991F4A95D1F70895CF9200
:1001F000DF92EF92FF92CF93DF936B017C01D3DF0D
:10020000EB01C114D104E104F10471F0CCDF6C1BEB
:100210007D0B683E7340A8F381E0C81AD108E1085D
:10022000F108C851DC4FEDCFDF91CF91FF90EF90F7
:10023000DF90CF900895789480B7806880BF80B7B2
:10024000806480BF8CB580648CBD8FEF8DBD80B71E
:10025000807F876080BF89B7846089BF4BDF86B1AC
:10026000887F866086B9379A0895CF93DF93C82F29
:10027000D0E0FE01E25EFF4F8491FE01EC5DFF4F96
:10028000C491CC2339F1D0E0FE01E45DFF4FA4918D
:10029000B0E0FE01E65DFF4FC491D0E02FB76111E1
:1002A00008C0F8949C91809598239C9398819823FA
:1002B0000AC0623051F4F8949C91382F3095932302
:1002C0009C939881982B988304C0F8949C91982BC8
:1002D0009C932FBFDF91CF910895A82FB0E0FD012F
:1002E000E25EFF4F9491FD01EC5DFF4FE491EE2340
:1002F00011F1811103C08AB58F7304C0813021F4DC
:100300008AB58F7C8ABD05C0843019F48CB58F7C8A
:100310008CBDF0E0E65DFF4FA491B0E02FB7611116
:1003200005C0F8948C919095892303C0F8948C9122
:10033000892B8C932FBF08957EDF95DEC3DEFECF21
:04034000F894FFCF5F
:0A03440000000100020003000400A5
:00000001FF
