:1000000016C030C02FC02EC046C12CC02BC02AC085
:1000100029C028C027C026C025C024C023C0010293
:1000200004081020010101010101003800371124EA
:100030001FBECFE5D2E0DEBFCDBF10E0A0E6B0E04E
:10004000EEE9F9E002C005900D92A437B107D9F7A7
:1000500020E0A4E7B0E001C01D92AD37B207E1F7A0
:1000600031D29BC4CDCFEF92FF920F931F93CF93CA
:10007000DF9360E080E0BFD1CBE6D0E086E6E82EFB
:1000800080E0F82E00E010E061E08881B4D1F70153
:1000900061917F018881E7D10F5F1F4F2296043065
:1000A000110591F7DF91CF911F910F91FF90EF9084
:1000B00008957F928F929F92AF92BF92CF92DF92DC
:1000C000EF92FF920F931F93CF93DF93EC012DD10B
:1000D0006B017C01CE0168EE73E03ED3AA2797FD49
:1000E000A095BA2FC80ED91EEA1EFB1E61E080E063
:1000F00082D161E080E0B7D1712CC0E0D0E0B12CBA
:10010000AA24A39412D16C157D058E059F0508F0D5
:1001100099C08FE097E215D1739480E9871530F488
:10012000B394EB2DE370BE2E712C69C0F1E0BF16C5
:1001300011F1BF16D0F182E0B816B9F1E3E0BE12BA
:100140005EC0BE0180E022D1672D70E080E090E0CB
:1001500077D220E030E040E050E4DBD143D2762E8D
:10016000BE01882777FD8095982F6AD22BEA3AEA5C
:1001700042E650E43DC0BE0180E008D1672D70E04A
:1001800080E090E05DD220E030E040EC50E4C1D16E
:1001900029D2762EBE01882777FD8095982F50D2E0
:1001A00020E030E04AE251E423C0BE0180E0EED01E
:1001B000672D70E080E090E043D220E030E040E442
:1001C00051E4A7D10FD2762EBE01882777FD809506
:1001D000982F36D220E030E04AEA51E49AD1FDD19E
:1001E000EB016F3F710559F054F0CFEFD0E007C03D
:1001F0008FD1F3D1EB0177FF02C0C0E0D0E096E6EB
:10020000892E90E0992E0BE610E08AE6881680E0B1
:10021000980609F477CF68E270E080E090E056D16C
:10022000613071058105910539F4F40160816A2519
:100230006083F801808117D1FFEF8F1A9F0A0E5F4C
:100240001F4FE3CF60E080E00ED160E080E0D3D0CC
:1002500081E0DF91CF911F910F91FF90EF90DF90A0
:10026000CF90BF90AF909F908F907F900895809196
:100270006400909165001DCF83B7887F83BF8AB5E6
:100280008C7F81608ABD83B7877F83BF83B7887F78
:10029000836083BF08951F920F920FB60F921124AF
:1002A0002F933F938F939F93AF93BF93809175004C
:1002B00090917600A0917700B09178003091740011
:1002C00026E0230F2D3730F029E8230F0396A11DD8
:1002D000B11D03C00296A11DB11D2093740080932F
:1002E000750090937600A0937700B093780080918A
:1002F000790090917A00A0917B00B0917C000196EA
:10030000A11DB11D8093790090937A00A0937B008A
:10031000B0937C00BF91AF919F918F913F912F91AE
:100320000F900FBE0F901F9018952FB7F894609103
:1003300075007091760080917700909178002FBFC2
:1003400008958130910539F0029729F0880F991F9F
:1003500001970197F1F70895789480B7806880BF7E
:1003600080B7806480BF8CB580648CBD8FEF8DBDFD
:1003700080B7807F876080BF89B7846089BF7CDF5A
:1003800086B1887F866086B9379A08951F93CF9388
:10039000DF93182FEB0161E02ED01C161D0614F020
:1003A00060E004C0CF3FD10534F061E0812FDF91E0
:1003B000CF911F9158C0111106C08AB58F73806804
:1003C0008ABDC9BD14C0113031F48AB58F7C8062FA
:1003D0008ABDC8BD0CC0143031F48CB58F7C8062EE
:1003E0008CBDCBBD04C0C038D105FCF6D9CFDF91A0
:1003F000CF911F910895CF93DF93C82FD0E0FE01D6
:10040000E25EFF4F8491FE01EC5DFF4FC491CC236F
:1004100039F1D0E0FE01E45DFF4FA491B0E0FE01B0
:10042000E65DFF4FC491D0E02FB7611108C0F8948A
:100430009C91809598239C93988198230AC0623060
:1004400051F4F8949C91382F309593239C93988184
:10045000982B988304C0F8949C91982B9C932FBF61
:10046000DF91CF910895A82FB0E0FD01E25EFF4F2C
:100470009491FD01EC5DFF4FE491EE2311F18111A8
:1004800003C08AB58F7304C0813021F48AB58F7C94
:100490008ABD05C0843019F48CB58F7C8CBDF0E02A
:1004A000E65DFF4FA491B0E02FB7611105C0F8944D
:1004B0008C919095892303C0F8948C91892B8C930F
:1004C0002FBF089549DFCFDDD2DEFECFCF93DF937C
:1004D00000D000D0CDB7DEB79B01AC01611571052E
:1004E0008105910559F069833A834B835C8348D237
:1004F00029813A814B815C8140D103C060E070E08A
:10050000CB010F900F900F900F90DF91CF91089536
:100510005058BB27AA270ED0E5C0D6D030F0DBD08C
:1005200020F031F49F3F11F41EF4CBC00EF4E0959F
:10053000E7FBC1C0E92FE7D080F3BA176207730762
:100540008407950718F071F49EF5FFC00EF4E0954E
:100550000B2EBA2FA02D0B01B90190010C01CA017D
:10056000A0011124FF27591B99F0593F50F4503E28
:1005700068F11A16F040A22F232F342F4427585F1A
:10058000F3CF469537952795A795F0405395C9F732
:100590007EF41F16BA0B620B730B840BBAF09150EA
:1005A000A1F0FF0FBB1F661F771F881FC2F70EC089
:1005B000BA0F621F731F841F48F48795779567955C
:1005C000B795F7959E3F08F0B3CF9395880F08F045
:1005D0009927EE0F97958795089504D06894B111E7
:1005E000B5C0089598D088F09F5790F0B92F9927FB
:1005F000B751A0F0D1F0660F771F881F991F1AF02E
:10060000BA95C9F712C0B13081F09FD0B1E008951A
:100610009CC0672F782F8827B85F39F0B93FCCF39B
:10062000869577956795B395D9F73EF49095809523
:10063000709561957F4F8F4F9F4F0895E89409C043
:1006400097FB3EF490958095709561957F4F8F4F05
:100650009F4F9923A9F0F92F96E9BB279395F6951B
:10066000879577956795B795F111F8CFFAF4BB0F99
:1006700011F460FF1BC06F5F7F4F8F4F9F4F16C0FD
:10068000882311F096E911C0772321F09EE8872F87
:10069000762F05C0662371F096E8862F70E060E043
:1006A0002AF09A95660F771F881FDAF7880F9695BC
:1006B000879597F9089597F99F6780E870E060E063
:1006C00008959FEF80EC089500240A9416161706EB
:1006D00018060906089500240A9412161306140633
:1006E00005060895092E0394000C11F4882352F096
:1006F000BB0F40F4BF2B11F460FF04C06F5F7F4F4E
:100700008F4F9F4F089557FD9058440F551F59F034
:100710005F3F71F04795880F97FB991F61F09F3FEE
:1007200079F087950895121613061406551FF2CF17
:100730004695F1DF08C0161617061806991FF1CF67
:1007400086957105610508940895E894BB2766278E
:100750007727CB0197F908950024552704C0080E88
:10076000591F880F991F009729F076956795B8F360
:100770007105B9F7802D952F0895052E97FB16F476
:1007800000940FD057FD05D068D007FC02D046F486
:1007900008C050954095309521953F4F4F4F5F4F82
:1007A000089590958095709561957F4F8F4F9F4FDD
:1007B000089568940013E894A0E0B0E0E1EEF3E05F
:1007C0001DC0EFEFE7F959016A015E23550FEE08EE
:1007D000FE2C87019B01AC019E23990F660B762F9F
:1007E000CB015DD0CDB7DEB7EAE024C02F923F92B7
:1007F0004F925F926F927F928F929F92AF92BF9231
:10080000CF92DF92EF92FF920F931F93CF93DF93DC
:10081000CDB7DEB7CA1BDB0B0FB6F894DEBF0FBE39
:10082000CDBF09942A88398848885F846E847D8486
:100830008C849B84AA84B984C884DF80EE80FD8088
:100840000C811B81AA81B981CE0FD11D0FB6F894FE
:10085000DEBF0FBECDBFED010895A1E21A2EAA1B87
:10086000BB1BFD010DC0AA1FBB1FEE1FFF1FA21760
:10087000B307E407F50720F0A21BB30BE40BF50B5D
:10088000661F771F881F991F1A9469F760957095E6
:10089000809590959B01AC01BD01CF010895DF9338
:1008A000CF939F92A0E49A2E0024D001E001F001A2
:1008B00016950795F794E794D794C794B794A7949F
:1008C00048F41068A20FB31FC41FD51FE61FF71FFF
:1008D000081E191E220F331F441F551F661F771F46
:1008E000881F991F9A9421F79D01AE01BF01C00195
:1008F00011249F90CF91DF910895A0E0B0E0E2E84D
:10090000F4E07ACFEC01688179818A819B8161155D
:1009100071058105910521F464E279ED8BE597E09D
:100920002DE133EF41E050E028DF49015A0127EA89
:1009300031E440E050E03DDF69017A01C501B401D6
:100940002CEE34EF4FEF5FEF34DF89019A01C00ED8
:10095000D11EE21EF31EF7FE06C081E0C81AD108C0
:10096000E10880E8F80AC882D982EA82FB82C701DE
:10097000B6019F77CDB7DEB7ECE05ACFBEDF089562
:1009800080E690E0BADF08956093600070936100A4
:0E09900080936200909363000895F894FFCF67
:10099E00010000000A000101010101010002000333
:0409AE000004000041
:00000001FF
