:1000000020C044C043C042C041C040C03FC03EC009
:100010003DC03CC03BC0C5C039C038C037C036C089
:1000200035C00102048040201008040201020202CF
:100030000101010101010101003B38003A3764026E
:10004000A70211241FBECFE5D2E0DEBFCDBF10E076
:10005000A0E6B0E0ECE6F5E002C005900D92AC3908
:10006000B107D9F720E0ACE9B0E001C01D92AD3A8C
:10007000B207E1F710E0C2E4D0E003C02297FE012E
:100080006FD2CE33D107D1F79FD16EC2B9CFCF9304
:10009000DF938BEA90E09093A8008093A700E09113
:1000A000AB00F091AC000190F081E02D099560E784
:1000B00070E085EA90E0E5D1C6E6D0E080E0C037A8
:1000C000D80729F08881229661E012D1F7CF61E04C
:1000D00080E00ED161E081E0DF91CF9109C11F93F3
:1000E000CF93DF93182FC9E1D0E061E0812F38D1A1
:1000F00061E070E080E090E0C2D060E0812F30D11C
:1001000063E070E080E090E0BAD0219771F7DF9172
:10011000CF911F910895CF93DF9360E080E020D1CD
:1001200060E081E01DD1C6E6D0E080E0C037D807AE
:1001300021F089919991D3DFF8CFC0E7D0E09A916F
:100140008A91CDDF80E0C636D807C9F761E080E04C
:1001500007D161E081E004D1C6E6D0E080E0C0379D
:10016000D80721F089919991BADFF8CFC0E7D0E0A4
:100170009A918A91B4DF80E0C636D807C9F7DF913B
:10018000CF9108958EB5887F8EBD8FB58C7F8160AD
:100190008FBD8EB5877E8EBD8EB5887F83608EBD08
:1001A00008951F920F920FB60F9211242F933F9331
:1001B0008F939F93AF93BF9380919D0090919E00EA
:1001C000A0919F00B091A00030919C0026E0230FE9
:1001D0002D3730F029E8230F0396A11DB11D03C070
:1001E0000296A11DB11D20939C0080939D009093C9
:1001F0009E00A0939F00B093A0008091A1009091D9
:10020000A200A091A300B091A4000196A11DB11D70
:100210008093A1009093A200A093A300B093A400A8
:10022000BF91AF919F918F913F912F910F900FBEF2
:100230000F901F9018953FB7F8948091A10090916E
:10024000A200A091A300B091A40022B708B600FEBE
:1002500005C02F3F19F00196A11DB11D3FBF6627B4
:10026000782F892F9A2F620F711D811D911D43E0F8
:10027000660F771F881F991F4A95D1F70895CF926F
:10028000DF92EF92FF92CF93DF936B017C01D3DF7C
:10029000EB01C114D104E104F10471F0CCDF6C1B5B
:1002A0007D0B683E7340A8F381E0C81AD108E108CD
:1002B000F108C851DC4FEDCFDF91CF91FF90EF9067
:1002C000DF90CF900895789480B7836080BF83B724
:1002D000877F83BF83B7887F836083BF89B781604F
:1002E00089BF50DF86B1887F866086B9379A0895C6
:1002F000CF93DF93C82FD0E0FE01EE5DFF4F8491D6
:10030000FE01E35DFF4FC491CC2339F1D0E0FE0143
:10031000E55CFF4FA491B0E0FE01E85CFF4FC491A3
:10032000D0E02FB7611108C0F8949C918095982374
:100330009C93988198230AC0623051F4F8949C9160
:10034000382F309593239C939881982B988304C0E1
:10035000F8949C91982B9C932FBFDF91CF91089597
:10036000A82FB0E0FD01EE5DFF4F9491FD01E35D2C
:10037000FF4FE491EE2339F1823019F480B78F7387
:1003800004C0833021F480B78F7C80BF0AC08430E2
:1003900019F48FB58F7304C0853019F48FB58F7C35
:1003A0008FBDF0E0E85CFF4FA491B0E02FB7611182
:1003B00005C0F8948C919095892303C0F8948C9192
:1003C000892B8C932FBF08957EDF61DEA4DEFECFE4
:1003D0000F931F93CF93DF93EC018B01F801619191
:1003E0008F01662341F0E881F9810190F081E02DD1
:1003F000CE010995F3CFDF91CF911F910F91089511
:10040000EF92FF920F931F93CF93DF937C018A01AA
:10041000EB01060F171FC017D10751F06991D701E3
:10042000ED91FC910190F081E02DC7010995F3CF8A
:10043000DF91CF911F910F91FF90EF900895DC0114
:10044000ED91FC910190F081E02D642F0994DC0185
:10045000ED91FC910280F381E02D0994CF93DF931D
:10046000EC014DE050E060E070E0E9DF4AE050E090
:1004700060E070E0CE01E3DF82E090E0DF91CF91B9
:100480000895CF93DF93EC01E2DFCE01DF91CF91AE
:10049000E5CF0895089580E090E008958FEF9FEFF5
:1004A00008958FEF9FEF08950895DC0112968D91C6
:1004B0009C911397DC01ED91FC910280F381E02D7A
:1004C000099581E090E00895E9EAF0E08EE790E098
:1004D0009183808386E890E09093A6008093A500A6
:1004E000F093A800E093A7000895B89AC09A0895E1
:1004F000862F880F8E7162956F70606122E095E0A3
:1005000059E0F89407C0000000000000000000005F
:1005100000000000879510F0C09802C0C09A00004B
:10052000579510F40000000033E049E54A95F1F7D3
:1005300000003A95D1F700009A9529F700002A9516
:1005400021F095E0862F54E0E5CF7894089588E96E
:1005500090E09093AC008093AB000895EE0FFF1FE6
:0C0560000590F491E02D0994F894FFCF71
:10056C000000AD00800006000700080009000A002A
:10057C00534D445F686561727400000000004902CD
:10058C004A02000000005502E80100024B02510231
:0C059C004E0254020000000075027802BC
:00000001FF
