:100000002AC04EC04DC04CC04BC04AC049C048C0B9
:1000100047C046C045C085C125C442C041C040C09C
:100020003FC00000010203040000000000000001C6
:1000300002048040201008040201080202020101AB
:100040000101010101010200003B00380000003AFB
:10005000003700005B0411241FBECFE5D2E0DEBFF5
:10006000CDBF10E0A0E6B0E0E6E8F9E002C0059000
:100070000D92A839B107D9F720E0A8E9B0E001C096
:100080001D92A83DB207E1F710E0CBE2D0E003C03B
:100090002197FE0170D4CA32D107D1F728D471C498
:1000A000AFCF0F931F93CF93DF9340E855E260E00B
:1000B00070E082EA90E072D36EE770E082EA90E04E
:1000C000D6D2C6E6D0E080E0C637D80741F061E07E
:1000D000888105D260E0888122963FD2F4CF60E02B
:1000E00080916400FCD161E08091640036D261E0CF
:1000F00080E0F5D161E081E0DF91CF911F910F9118
:10010000EEC1CF92DF92EF92FF920F931F93CF93A6
:10011000DF93C6E7D0E07E0100E010E0C82ED12CCE
:1001200082E0E81AF108B601002E02C075956795C5
:100130000A94E2F76170F70180810FD20F5F1F4FC1
:100140000830110569F768EE73E080E090E05AD15D
:10015000229760E0888101D2F0E0C636DF07C1F760
:10016000DF91CF911F910F91FF90EF90DF90CF9093
:100170000895CF93DF9360E080E0EFD160E081E00D
:10018000ECD1C6E7D0E080E0CE37D80741F08991C6
:10019000B8DF68EE73E080E090E034D1F4CFDF9117
:1001A000CF9108951F93CF93DF93182FC9E1D0E02B
:1001B00061E0812FD2D161E070E080E090E022D157
:1001C00060E0812FCAD163E070E080E090E01AD156
:1001D000219771F7DF91CF911F9108950F931F938E
:1001E000CF93DF9360E080E0B8D160E081E0B5D1EB
:1001F000C6E6D0E080E0C637D80771F089919991C2
:10020000D1DF8091620038D120916000309161008F
:10021000821793077CF743C0C6E7D0E08E01F80150
:10022000929182918F01BEDF8091620025D1209151
:10023000600030916100821793078CF1F0E0063680
:100240001F0769F761E080E088D161E081E085D136
:1002500006E610E0F0E006371F07A1F0F8018191F3
:1002600091918F019FDF8091620006D12091600003
:1002700030916100821793076CF711C080E0C63699
:10028000D80769F09A918A918DDF80916200F4D04D
:100290002091600030916100821793077CF7DF9115
:1002A000CF911F910F91089580916200E5D0209128
:1002B0006000309161002817390714F48FDFF4CF04
:1002C00060E080E04AD160E081E047D161E0809168
:1002D000660043D180916200CFD0209160003091C0
:1002E000610082179307B4F360E08091660035D116
:1002F0006AE070E080E090E085D03BCF8EB5887FEB
:100300008EBD8FB581608FBD8FB58D7F8FBD8EB552
:10031000877F8EBD8EB58F7E8EBD8EB583608EBD80
:1003200008951F920F920FB60F9211242F933F93AF
:100330008F939F93AF93BF938091990090919A0070
:10034000A0919B00B0919C003091980026E0230F73
:100350002D3730F029E8230F0396A11DB11D03C0EE
:100360000296A11DB11D209398008093990090934F
:100370009A00A0939B00B0939C0080919D00909167
:100380009E00A0919F00B091A0000196A11DB11DFB
:1003900080939D0090939E00A0939F00B093A00037
:1003A000BF91AF919F918F913F912F910F900FBE71
:1003B0000F901F9018953FB7F89480919D009091F1
:1003C0009E00A0919F00B091A00022B708B600FE49
:1003D00005C02F3F19F00196A11DB11D3FBFBA2FD7
:1003E000A92F982F8827820F911DA11DB11DBC0137
:1003F000CD0143E0660F771F881F991F4A95D1F7FB
:1004000008950895CF92DF92EF92FF92CF93DF93FA
:100410006B017C01D0DFEB01C114D104E104F104D4
:1004200079F0EFDFC8DF6C1B7D0B683E7340A0F3F3
:1004300081E0C81AD108E108F108C851DC4FF2CFB9
:10044000DF91CF91FF90EF90DF90CF90089580B72C
:10045000826080BF80B7816080BF83B7887F836000
:1004600083BF789489B7816089BF48DF86B1887778
:10047000866886B9379A08958F739091A1009295F6
:10048000990F990F907C892B87B9369A3699FECFB0
:1004900084B125B190E0922B0895813031F480B77A
:1004A0008F7780BF80B78F7B07C0823039F480B7E9
:1004B0008F7D80BF80B78F7E80BF0895833031F4F9
:1004C0008FB58F778FBD8FB58F7B07C0843031F4A8
:1004D0008FB58F7D8FBD8FB58F7E8FBD0895CF93E4
:1004E000DF9387FD8FEF90E0FC01E15DFF4F2491EA
:1004F000FC01E55CFF4F8491882361F190E0880F57
:10050000991FFC01E35BFF4FC591D491FC01E95BAE
:10051000FF4FA591B491611109C09FB7F8948881EC
:10052000209582238883EC912E230BC0623061F4E6
:100530009FB7F8943881822F809583238883EC912C
:100540002E2B2C939FBF06C08FB7F894E8812E2BDB
:1005500028838FBFDF91CF9108950F931F93CF937F
:10056000DF931F92CDB7DEB787FD8FEF282F30E0E6
:10057000F901EE5DFF4F8491F901E15DFF4F1491A8
:10058000F901E55CFF4F04910023D9F0882319F0AD
:10059000698383DF6981E02FF0E0EE0FFF1FE95BE5
:1005A000FF4FA591B4918FB7611106C0F8949C914B
:1005B000E12FE095E92303C0F894EC91E12BEC9353
:1005C0008FBF0F90DF91CF911F910F910895CF9220
:1005D000DF92EF92FF920F931F93CF93DF936C0103
:1005E000EB017B01E40EF51E00E010E0CE15DF0507
:1005F00061F06991D601ED91FC910190F081E02DBF
:10060000C6010995080F191FF1CFC801DF91CF91DD
:100610001F910F91FF90EF90DF90CF900895FB0115
:1006200001900020E9F73197AF01461B570BDC0121
:10063000ED91FC910280F381E02D0994DC01ED91B4
:10064000FC910190F081E02D09940F931F93CF93BB
:10065000DF93EC016DE0F2DF8C016AE0CE01EEDFAA
:10066000800F911FDF91CF911F910F9108950F93EC
:100670001F93CF93DF93EC01D2DF8C01CE01E5DF36
:10068000800F911FDF91CF911F910F910895DC0191
:100690001F96ED91FC91509780A191A122A133A1C9
:1006A000821B930B8F7199270895DC011F96ED91A2
:1006B000FC91509782A193A120A131A1281739075D
:1006C00029F0E80FF91F808190E008958FEF9FEFE8
:1006D0000895DC011F96ED91FC91509722A133A162
:1006E00080A191A18217930761F0DF01A20FB31FD0
:1006F0008C912F5F3F4F2F71332733A322A390E0BC
:1007000008958FEF9FEF08952FB7F894FC0145856A
:1007100056853AE06095089420F47BB375237BBB43
:1007200004C07BB3742B7BBB000021D020D01FD032
:100730001ED066953A9581F72FBF81E090E008952D
:1007400008954091AE0020E038E011D010D00FD0D5
:100750000ED00DD0889479B3742309F008942795AE
:100760003A9509F0F3CF03D002D0822F08958091FB
:10077000B300982F9A95F1F70895449A43984698B4
:10078000479ADC0151961C9251971F96ED91FC916E
:10079000509782A193A191A380A308950F931F93D3
:1007A000CF93DF9300D000D0CDB7DEB78C019A0194
:1007B000AB0160E072E18AE790E0C1D0CA01B90103
:1007C00067527109810991092CE030E040E050E066
:1007D000B6D0DA01C9010197A109B1098F3F91058E
:1007E000A105B10538F0C80129833A834B835C83A6
:1007F000C4DF2981F801218B4398469A4798429893
:10080000419A409A9AB38485809589238ABB9BB389
:100810008485892B8BBB9AB38585892B8ABB9BB337
:100820008585892B8BBB449A439A0F900F900F902C
:100830000F90DF91CF911F910F910895FB0140A17F
:1008400051A19A012F5F3F4F2F71332762A173A1EE
:100850002617370731F0DF01A40FB51F8C9331A3A2
:1008600020A308951F920F920FB60F9211242F9379
:100870003F934F935F936F937F938F939F93AF9328
:10088000BF93EF93FF935DDF6091B1007091B20071
:10089000D5DF449AFF91EF91BF91AF919F918F91D6
:1008A0007F916F915F914F913F912F910F900FBE6C
:1008B0000F901F901895E2EAF0E01382128288EE02
:1008C00093E0A0E0B0E084839583A683B7838CE8AF
:1008D00090E09183808384EB90E0908B878784E025
:1008E000848782E085878DEF8687118A089581B796
:1008F00081BFADDDD6DBD8DCFECFA1E21A2EAA1B6C
:10090000BB1BFD010DC0AA1FBB1FEE1FFF1FA217BF
:10091000B307E407F50720F0A21BB30BE40BF50BBC
:10092000661F771F881F991F1A9469F76095709545
:10093000809590959B01AC01BD01CF010895052ED6
:1009400097FB16F400940FD057FD05D0D6DF07FCB7
:1009500002D046F408C050954095309521953F4F00
:100960004F4F5F4F089590958095709561957F4F9B
:100970008F4F9F4F0895EE0FFF1F0590F491E02DCC
:060980000994F894FFCF7A
:10098600F203070003000600050004000200080049
:1009960009000A000700736466616D696C79534D3E
:1009A600445F686561727400000000008403E7021A
:0809B600470369035503A00388
:00000001FF
