:1000000016C030C093C02EC0D4C02CC02BC02AC094
:1000100029C028C027C026C025C024C023C0010293
:1000200004081020010101010101003800371124EA
:100030001FBECFE5D2E0DEBFCDBF10E0A0E6B0E04E
:10004000EEE4F4E002C005900D92A236B107D9F7B4
:1000500020E0A2E6B0E001C01D92AF36B207E1F7A2
:10006000F0D1F3C1CDCF68E572E080E090E00FC140
:1000700068E775E080E090E00AC161E0809164008B
:1000800079D162E08091600075D180E28BBF88E019
:1000900085BB789408950F931F93CF93DF938C01C2
:1000A0008233910514F400E010E0C0E0D0E0BE011E
:1000B000809164002AD162E070E080E090E0E7D0B7
:1000C0002596C43081E0D80791F7B80164567109CC
:1000D000882777FD8095982FDAD0CFEFD0E0BE014A
:1000E0008091640012D162E070E080E090E0CFD0B7
:1000F0002597CB3F8FEFD80791F7DF91CF911F91D5
:100100000F91089588EC90E0C6CF88E592E0C3CFC8
:10011000FCDFFBDFFADFA7DFF5DFF4DFF3DFF2DF81
:10012000A2DFF0DFEFDFEEDF9EDFA2CF1F920F92A4
:100130000FB60F9211240F900FBE0F901F901895BD
:10014000379885B7877E806185BF85B7806285BF18
:1001500085B7806285BF889585B78F7D85BF85B758
:100160008F7D85BF379A08951092630010926200C8
:10017000809162009091630006975CF4C9DF8091E2
:1001800062009091630001969093630080936200F7
:10019000EFCFD6CF83B7887F83BF8AB58C7F81604E
:1001A0008ABD83B7877F83BF83B7887F836083BF20
:1001B00008951F920F920FB60F9211242F933F9321
:1001C0008F939F93AF93BF93809167009091680046
:1001D000A0916900B0916A003091660026E0230F7B
:1001E0002D3730F029E8230F0396A11DB11D03C060
:1001F0000296A11DB11D2093660080936700909325
:100200006800A0936900B0936A0080916B009091A0
:100210006C00A0916D00B0916E000196A11DB11D02
:1002200080936B0090936C00A0936D00B0936E0070
:10023000BF91AF919F918F913F912F910F900FBEE2
:100240000F901F9018953FB7F89480916B00909194
:100250006C00A0916D00B0916E002FB508B602FE43
:1002600005C02F3F19F00196A11DB11D3FBF6627A4
:10027000782F892F9A2F620F711D811D911D43E0E8
:10028000660F771F881F991F4A95D1F70895CF925F
:10029000DF92EF92FF92CF93DF936B017C01D3DF6C
:1002A000EB01C114D104E104F10471F0CCDF6C1B4B
:1002B0007D0B683E7340A8F381E0C81AD108E108BD
:1002C000F108C851DC4FEDCFDF91CF91FF90EF9057
:1002D000DF90CF900895789480B7806880BF80B712
:1002E000806480BF8CB580648CBD8FEF8DBD80B77E
:1002F000807F876080BF89B7846089BF4BDF86B10C
:10030000887F866086B9379A08951F93CF93DF93CD
:10031000182FEB0161E02ED01C161D0614F060E0D2
:1003200004C0CF3FD10534F061E0812FDF91CF9140
:100330001F9158C0111106C08AB58F7380688ABD9D
:10034000C9BD14C0113031F48AB58F7C80628ABD7A
:10035000C8BD0CC0143031F48CB58F7C80628CBD6C
:10036000CBBD04C0C038D105FCF6D9CFDF91CF9109
:100370001F910895CF93DF93C82FD0E0FE01E25E76
:10038000FF4F8491FE01EC5DFF4FC491CC2339F106
:10039000D0E0FE01E45DFF4FA491B0E0FE01E65D18
:1003A000FF4FC491D0E02FB7611108C0F8949C9121
:1003B000809598239C93988198230AC0623051F4C9
:1003C000F8949C91382F309593239C939881982B87
:1003D000988304C0F8949C91982B9C932FBFDF9135
:1003E000CF910895A82FB0E0FD01E25EFF4F9491F8
:1003F000FD01EC5DFF4FE491EE2311F1811103C08B
:100400008AB58F7304C0813021F48AB58F7C8ABD90
:1004100005C0843019F48CB58F7C8CBDF0E0E65DAE
:10042000FF4FA491B0E02FB7611105C0F8948C91F3
:100430009095892303C0F8948C91892B8C932FBFBE
:0E044000089549DF1ADE90DEFECFF894FFCF5C
:02044E000300A9
:00000001FF
