:1000000018C03CC03BC03AC06DC138C037C036C014
:1000100035C034C033C032C031C030C02FC001023F
:1000200004081020010101010101003800376F03AD
:10003000B20311241FBECFE5D2E0DEBFCDBF10E07A
:10004000A0E6B0E0ECEEF9E002C005900D92A63912
:10005000B107D9F720E0A6E9B0E001C01D92AA3AA5
:10006000B207E1F710E0C2E3D0E003C02297FE013F
:10007000B7D4CE32D107D1F7B2D2B6C4C1CFCF9365
:10008000DF9388EA90E09093A5008093A400E0912C
:10009000A800F091A9000190F081E02D09956AE691
:1000A00070E082EA90E0F8D260E08091680030D29F
:1000B00061E0809196002CD261E083E029D2C3E018
:1000C000D0E061E083E05CD264E670E080E090E044
:1000D00083D160E083E054D264E670E080E090E099
:1000E0007BD1219771F760E083E012D261E08091CB
:1000F000680046D260E08091960042D282E0B5D19D
:10010000EC0161E08091680003D260E080916800BA
:1001100037D260E08091960033D261E08091960002
:10012000F7D1C132D34034F5809196009091970079
:1001300020916800309169003093970020939600D9
:100140009093690080936800C3E0D0E061E0809103
:10015000960016D264EF71E080E090E03DD160E05F
:10016000809196000DD264EF71E080E090E034D190
:10017000219761F7DF91CF910895CF92DF92EF92AF
:10018000FF920F931F93CF93DF93EC01F5D06B0198
:100190007C01CE0168EE73E010D4AA2797FDA095EC
:1001A000BA2FC80ED91EEA1EFB1E00E0C0E0D0E048
:1001B00010E0E2D06C157D058E059F0508F074C037
:1001C0008FE097E22DD10F5F013920F01F5F137090
:1001D00000E0EFCF113001F1D0F11230C1F1133056
:1001E00041F7BE01809196005ED1602F70E080E003
:1001F00090E057D320E030E040E050E4BBD223D37E
:10020000062FBE01882777FD8095982F4AD32BEAC9
:100210003AEA42E650E440C0BE018091960043D1E4
:10022000602F70E080E090E03CD320E030E040ECD4
:1002300050E4A0D208D3062FBE01882777FD809511
:10024000982F2FD320E030E04AE251E425C0BE01D0
:100250008091960028D1602F70E080E090E021D35B
:1002600020E030E040E451E485D2EDD2062FBE011B
:10027000882777FD8095982F14D320E030E04AEA54
:1002800051E478D2DBD2EB016F3F710509F00CF439
:1002900090CFCFEFD0E08DCF6CD2D0D2EB0177FFF3
:1002A00088CFC0E0D0E085CF81E0DF91CF911F9172
:1002B0000F91FF90EF90DF90CF90089580916600AE
:1002C000909167005ACF83B7887F83BF8AB58C7FB0
:1002D00081608ABD83B7877F83BF83B7887F836050
:1002E00083BF08951F920F920FB60F9211242F9380
:1002F0003F938F939F93AF93BF9380919900909179
:100300009A00A0919B00B0919C003091980026E04B
:10031000230F2D3730F029E8230F0396A11DB11DBF
:1003200003C00296A11DB11D2093980080939900EF
:1003300090939A00A0939B00B0939C0080919D00A5
:1003400090919E00A0919F00B091A0000196A11DE8
:10035000B11D80939D0090939E00A0939F00B09349
:10036000A000BF91AF919F918F913F912F910F90DE
:100370000FBE0F901F9018952FB7F89460919900B9
:1003800070919A0080919B0090919C002FBF0895DE
:100390003FB7F89480919D0090919E00A0919F009E
:1003A000B091A0002FB508B602FE05C02F3F19F08E
:1003B0000196A11DB11D3FBF6627782F892F9A2F67
:1003C000620F711D811D911D43E0660F771F881F0D
:1003D000991F4A95D1F70895CF92DF92EF92FF923D
:1003E000CF93DF936B017C01D3DFEB01C114D10408
:1003F000E104F10471F0CCDF6C1B7D0B683E7340AF
:10040000A8F381E0C81AD108E108F108C851DC4F0F
:10041000EDCFDF91CF91FF90EF90DF90CF900895D7
:100420008130910539F0029729F0880F991F0197C3
:100430000197F1F70895789480B7806880BF80B7FE
:10044000806480BF8CB580648CBD8FEF8DBD80B71C
:10045000807F876080BF89B7846089BF34DF86B1C1
:10046000887F866086B9379A0895863008F086506E
:100470003091A10027B1932F9295990F990F907CFD
:100480002F72922B32FB332730F93295307F932B2A
:1004900097B997B1907F982B97B9369A3699FECF36
:1004A00084B195B108951F93CF93DF93182FEB017B
:1004B00061E02ED01C161D0614F060E004C0CF3F92
:1004C000D10534F061E0812FDF91CF911F9158C0A9
:1004D000111106C08AB58F7380688ABDC9BD14C06A
:1004E000113031F48AB58F7C80628ABDC8BD0CC0E2
:1004F000143031F48CB58F7C80628CBDCBBD04C0D0
:10050000C038D105FCF6D9CFDF91CF911F91089566
:10051000CF93DF93C82FD0E0FE01E25EFF4F8491BE
:10052000FE01EC5DFF4FC491CC2339F1D0E0FE0118
:10053000E45DFF4FA491B0E0FE01E65DFF4FC49182
:10054000D0E02FB7611108C0F8949C918095982352
:100550009C93988198230AC0623051F4F8949C913E
:10056000382F309593239C939881982B988304C0BF
:10057000F8949C91982B9C932FBFDF91CF91089575
:10058000A82FB0E0FD01E25EFF4F9491FD01EC5D0C
:10059000FF4FE491EE2311F1811103C08AB58F73EF
:1005A00004C0813021F48AB58F7C8ABD05C08430B7
:1005B00019F48CB58F7C8CBDF0E0E65DFF4FA49103
:1005C000B0E02FB7611105C0F8948C919095892304
:1005D00003C0F8948C91892B8C932FBF08952BDF47
:1005E0004EDD6CDEFECF0F931F93CF93DF93EC01B4
:1005F0008B01F80161918F01662341F0E881F98157
:100600000190F081E02DCE010995F3CFDF91CF91DC
:100610001F910F910895EF92FF920F931F93CF9325
:10062000DF937C018A01EB01060F171FC017D1076A
:1006300051F06991D701ED91FC910190F081E02D8D
:10064000C7010995F3CFDF91CF911F910F91FF90D3
:10065000EF900895DC01ED91FC910190F081E02D87
:10066000642F0994DC01ED91FC910280F381E02D6F
:100670000994CF93DF93EC014DE050E060E070E02F
:10068000E9DF4AE050E060E070E0CE01E3DF82E0C5
:1006900090E0DF91CF910895CF93DF93EC01E2DFFB
:1006A000CE01DF91CF91E5CF0895089580E090E0ED
:1006B00008958FEF9FEF08958FEF9FEF08950895AE
:1006C000DC0112968D919C911397DC01ED91FC91C8
:1006D0000280F381E02D099581E090E00895E6EA3B
:1006E000F0E088E790E09183808380E890E0909349
:1006F000A3008093A200F093A500E093A4000895C6
:10070000BB9AC39A0895862F880F8E7162956F7079
:10071000606122E095E059E0F89407C00000000015
:1007200000000000000000000000879510F0C39852
:1007300002C0C39A0000579510F40000000033E097
:1007400049E54A95F1F700003A95D1F700009A95EE
:1007500029F700002A9521F095E0862F54E0E5CF97
:100760007894089582E990E09093A9008093A8007E
:1007700008955058BB27AA270ED0E5C0D6D030F038
:10078000DBD020F031F49F3F11F41EF4CBC00EF407
:10079000E095E7FBC1C0E92FE7D080F3BA17620705
:1007A00073078407950718F071F49EF5FFC00EF4E7
:1007B000E0950B2EBA2FA02D0B01B90190010C0171
:1007C000CA01A0011124FF27591B99F0593F50F489
:1007D000503E68F11A16F040A22F232F342F4427E1
:1007E000585FF3CF469537952795A795F0405395D9
:1007F000C9F77EF41F16BA0B620B730B840BBAF0A9
:100800009150A1F0FF0FBB1F661F771F881FC2F713
:100810000EC0BA0F621F731F841F48F48795779527
:100820006795B795F7959E3F08F0B3CF9395880FDE
:1008300008F09927EE0F97958795089504D068944E
:10084000B111B5C0089598D088F09F5790F0B92F96
:100850009927B751A0F0D1F0660F771F881F991F15
:100860001AF0BA95C9F712C0B13081F09FD0B1E04B
:1008700008959CC0672F782F8827B85F39F0B93F5B
:10088000CCF3869577956795B395D9F73EF4909517
:100890008095709561957F4F8F4F9F4F0895E89495
:1008A00009C097FB3EF490958095709561957F4FB8
:1008B0008F4F9F4F9923A9F0F92F96E9BB27939566
:1008C000F695879577956795B795F111F8CFFAF476
:1008D000BB0F11F460FF1BC06F5F7F4F8F4F9F4FA7
:1008E00016C0882311F096E911C0772321F09EE805
:1008F000872F762F05C0662371F096E8862F70E06B
:1009000060E02AF09A95660F771F881FDAF7880F44
:100910009695879597F9089597F99F6780E870E015
:1009200060E008959FEF80EC089500240A94161665
:10093000170618060906089500240A9412161306CD
:10094000140605060895092E0394000C11F488235B
:1009500052F0BB0F40F4BF2B11F460FF04C06F5F77
:100960007F4F8F4F9F4F089557FD9058440F551F4D
:1009700059F05F3F71F04795880F97FB991F61F021
:100980009F3F79F087950895121613061406551F98
:10099000F2CF4695F1DF08C0161617061806991F04
:1009A000F1CF86957105610508940895E894BB27F9
:1009B00066277727CB0197F908950024552704C0AF
:1009C000080E591F880F991F009729F07695679593
:1009D000B8F37105B9F7802D952F0895EE0FFF1F1D
:0C09E0000590F491E02D0994F894FFCFED
:1009EC000000AA0080000A000400534D445F6865B3
:1009FC0061727400000000005403550300000000F5
:100A0C006003F3020B0356035C0359035F030000FE
:060A1C00000080038303CB
:00000001FF
