:1000000023C03BC03AC039C038C047C136C035C034
:1000100034C033C032C031C030C02FC02EC0000049
:100020000000370000000000380002020202020255
:10003000020202020102040810202004100801023A
:10004000000004000000000011241FBECFEDCDBF52
:1000500010E0A0E6B0E0EAECF7E002C005900D92F7
:10006000A236B107D9F720E0A2E6B0E001C01D92A8
:10007000AD36B207E1F75BD1A6C3C2CF90E0FC0179
:10008000E25CFF4F3491FC01EC5CFF4F2491FC01DA
:10009000E65DFF4FE491EE2339F1332399F03230DE
:1000A00071F028F4313071F48AB58F770AC033309B
:1000B00011F0343039F48CB58F7D8CBD03C08AB516
:1000C0008F7D8ABDF0E0EE0FFF1FEC5DFF4FA59125
:1000D000B4918FB7F894EC91611103C020952E2351
:1000E00001C02E2B2C938FBF0895CF93DF9390E008
:1000F000FC01EC5CFF4F2491FC01E65DFF4F849115
:10010000882361F190E0880F991FFC01E25EFF4FA8
:10011000C591D491FC01EC5DFF4FA591B4916111A3
:1001200009C09FB7F8948881209582238883EC9139
:100130002E230BC0623061F49FB7F8943881822F70
:10014000809583238883EC912E2B2C939FBF06C030
:100150008FB7F894E8812E2B28838FBFDF91CF9142
:1001600008951F93CF93DF93182FEB0161E0BDDF5C
:10017000209711F460E004C0CF3FD10531F461E075
:10018000812FDF91CF911F9179CFE12FF0E0E25CD9
:10019000FF4FE491E23089F038F4E130C1F48AB5E0
:1001A00080688ABDC9BD17C0E33061F0E43079F4DE
:1001B0008CB580628CBDCBBD0EC08AB580628ABD15
:1001C000C8BD09C08CB580628CBDCEBD04C0C0382E
:1001D000D105ACF6CFCFDF91CF911F9108953FB7F6
:1001E000F8948091630090916400A0916500B091B3
:1001F000660022B708B601FE05C02F3F19F0019630
:10020000A11DB11D3FBFBA2FA92F982F8827820F9C
:10021000911DA11DB11DBC01CD0143E0660F771FEB
:10022000881F991F4A95D1F708958F929F92AF9298
:10023000BF92CF92DF92EF92FF926B017C01CFDFF2
:100240004B015C01C114D104E104F104E9F0C7DF02
:10025000DC01CB0188199909AA09BB09883E9340A2
:10026000A105B10578F321E0C21AD108E108F1082F
:1002700088EE880E83E0981EA11CB11CC114D10425
:10028000E104F10421F7DECFFF90EF90DF90CF90F3
:10029000BF90AF909F908F9008951F920F920FB6CE
:1002A0000F9211242F933F938F939F93AF93BF93FC
:1002B0008091670090916800A0916900B0916A00F8
:1002C0003091620026E0230F2D3720F40296A11D05
:1002D000B11D05C029E8230F0396A11DB11D209370
:1002E00062008093670090936800A0936900B093C8
:1002F0006A008091630090916400A0916500B091C4
:1003000066000196A11DB11D809363009093640067
:10031000A0936500B0936600BF91AF919F918F91BC
:100320003F912F910F900FBE0F901F9018957894CA
:100330008AB582608ABD8AB581608ABD83B78260D2
:1003400083BF83B7816083BF89B7826089BF80B76D
:10035000826080BF80B7816080BF329A319A3098C6
:10036000379A8CB580648CBD0091600060E0802F6E
:10037000BCDE10916B0061E0812FB7DE61E083E0AD
:10038000B4DEC3E0D0E061E083E078DE64E670E0F4
:1003900080E090E04ADF60E083E070DE64E670E0D9
:1003A00080E090E042DF219771F760E083E09DDE1E
:1003B00061E0802F63DE60E0812F60DE82E087B93C
:1003C000369A3699FECF04B185B110E0182BC09152
:1003D0006000E090610061E08C2F87DE60E08C2F90
:1003E0004DDED0916B00F0906C0060E08D2F46DE0A
:1003F00061E08D2F7ADE013213404CF08AE1E82E65
:100400008EE4F82E90E0C92E90E0D92E3BC0C09328
:100410006B00E0926C00D0936000F092610003E00A
:1004200010E061E08C2F2ADE64EF71E080E090E064
:10043000FCDE60E08C2F22DE64EF71E080E090E073
:10044000F4DE0150110969F7D9CFC7010197F1F71F
:100450001F5F113968F10F5F037010E02FB7F89438
:100460008091670090916800A0916900B0916A0046
:100470002FBF88159905AA05BB0538F3C114D1040F
:1004800009F0BEDD8FB7F894809067009090680007
:10049000A0906900B0906A008FBF80E1880E87E26B
:1004A000981EA11CB11C10E0C0E0D0E000E0D6CF47
:1004B0000130F9F0C0F10230B1F1033079F6BE013C
:1004C00080916B004EDE612F70E080E090E0EFD015
:1004D00020E030E040E050E453D0BBD0162FBE0106
:1004E000DD0F880B990BE3D02BEA3AEA42E650E4A1
:1004F0003EC0BE0180916B0034DE612F70E080E071
:1005000090E0D5D020E030E040EC50E439D0A1D0EC
:10051000162FBE01DD0F880B990BC9D020E030E00B
:100520004AE251E424C0BE0180916B001ADE612FC3
:1005300070E080E090E0BBD020E030E040E451E4A7
:100540001FD087D0162FBE01DD0F880B990BAFD0BF
:1005500020E030E04AEA51E413D076D0EB016F3F5F
:10056000710509F00CF47ACFCFEFD0E077CF07D048
:100570006BD0EB0177FF72CFC0E0D0E06FCF505867
:10058000BB27AA270ED0E5C0D6D030F0DBD020F0B4
:1005900031F49F3F11F41EF4CBC00EF4E095E7FB5D
:1005A000C1C0E92FE7D080F3BA1762077307840749
:1005B000950718F071F49EF5FFC00EF4E0950B2E30
:1005C000BA2FA02D0B01B90190010C01CA01A001A5
:1005D0001124FF27591B99F0593F50F4503E68F100
:1005E0001A16F040A22F232F342F4427585FF3CF41
:1005F000469537952795A795F0405395C9F77EF412
:100600001F16BA0B620B730B840BBAF09150A1F05A
:10061000FF0FBB1F661F771F881FC2F70EC0BA0FE0
:10062000621F731F841F48F4879577956795B79568
:10063000F7959E3F08F0B3CF9395880F08F0992760
:10064000EE0F97958795089504D06894B111B5C0C1
:10065000089598D088F09F5790F0B92F9927B751F7
:10066000A0F0D1F0660F771F881F991F1AF0BA9576
:10067000C9F712C0B13081F09FD0B1E008959CC09D
:10068000672F782F8827B85F39F0B93FCCF386956C
:1006900077956795B395D9F73EF4909580957095C9
:1006A00061957F4F8F4F9F4F0895E89409C097FB46
:1006B0003EF490958095709561957F4F8F4F9F4F39
:1006C0009923A9F0F92F96E9BB279395F69587957D
:1006D00077956795B795F111F8CFFAF4BB0F11F440
:1006E00060FF1BC06F5F7F4F8F4F9F4F16C08823E7
:1006F00011F096E911C0772321F09EE8872F762F1D
:1007000005C0662371F096E8862F70E060E02AF05D
:100710009A95660F771F881FDAF7880F9695879549
:1007200097F9089597F99F6780E870E060E0089571
:100730009FEF80EC089500240A94161617061806F9
:100740000906089500240A941216130614060506D5
:100750000895092E0394000C11F4882352F0BB0F66
:1007600040F4BF2B11F460FF04C06F5F7F4F8F4FC9
:100770009F4F089557FD9058440F551F59F05F3F04
:1007800071F04795880F97FB991F61F09F3F79F0B3
:1007900087950895121613061406551FF2CF469535
:1007A000F1DF08C0161617061806991FF1CF8695B7
:1007B0007105610508940895E894BB27662777279B
:0A07C000CB0197F90895F894FFCFDC
:0207CA00040029
:00000001FF
