:1000000023C03BC03AC039C038C0EAC036C035C092
:1000100034C033C032C031C030C02FC02EC0000049
:100020000000370000000000380002020202020255
:10003000020202020102040810202004100801023A
:10004000000004000000000011241FBECFEDCDBF52
:1000500010E0A0E6B0E0EAE8F3E002C005900D92FF
:10006000AA36B107D9F720E0AAE6B0E001C01D9298
:10007000A337B207E1F7FED086C1C2CF90E0FC0102
:10008000E25CFF4F2491FC01EC5CFF4F3491FC01DA
:10009000E65DFF4FE491EE2341F1222399F02230F7
:1000A00071F028F4213071F48AB58F770AC02330BB
:1000B00011F0243039F48CB58F7D8CBD03C08AB526
:1000C0008F7D8ABDF0E0EE0FFF1FEC5DFF4FA59125
:1000D000B4919FB7F894611104C08C913095382386
:1000E00002C0EC913E2B3C939FBF08953FB7F8941C
:1000F00080916F0090917000A0917100B09172009A
:1001000022B708B601FE05C02F3F19F00196A11DC8
:10011000B11D3FBFBA2FA92F982F8827820F911D9D
:10012000A11DB11DBC01CD0143E0660F771F881FE3
:10013000991F4A95D1F708958F929F92AF92BF92DF
:10014000CF92DF92EF92FF926B017C01CFDF4B01E8
:100150005C01C114D104E104F104E9F0C7DFDC0162
:10016000CB0188199909AA09BB09883E9340A105CA
:10017000B10578F321E0C21AD108E108F10888EE50
:10018000880E83E0981EA11CB11CC114D104E104A7
:10019000F10421F7DECFFF90EF90DF90CF90BF907A
:1001A000AF909F908F9008951F93CF93DF93182F58
:1001B000C9E1D0E061E0812F61DF61E070E080E0C3
:1001C00090E0BADF60E0812F59DF63E070E080E00B
:1001D00090E0B2DF219771F7DF91CF911F910895E1
:1001E0001F920F920FB60F9211242F933F938F936C
:1001F0009F93AF93BF9380916B0090916C00A091FF
:100200006D00B0916E0030916A0026E0230F2D370B
:1002100020F40296A11DB11D05C029E8230F039605
:10022000A11DB11D20936A0080936B0090936C0018
:10023000A0936D00B0936E0080916F00909170005C
:10024000A0917100B09172000196A11DB11D809323
:100250006F0090937000A0937100B0937200BF91F3
:10026000AF919F918F913F912F910F900FBE0F9063
:100270001F90189578948AB582608ABD8AB581608E
:100280008ABD83B7826083BF83B7816083BF89B72C
:10029000826089BF80B7826080BF80B7816080BF85
:1002A000329A319A3098379A8CB580648CBDE4E3E9
:1002B000F0E02491EAE2F0E084918823C1F090E03C
:1002C000880F991FFC01E25EFF4FC591D491FC019C
:1002D000EC5DFF4FA591B4919FB7F8948881E22F10
:1002E000E0958E2388838C91E823EC939FBFA0E652
:1002F000B0E02AE630E02A173B0709F18D919D9185
:100300009927FC01EC5CFF4F4491FC01E65DFF4F37
:100310008491882381F390E0880F991FFC01E25EAD
:10032000FF4FC591D491FC01EC5DFF4F85919491F5
:100330008FB7F894E881E42BE8838FBFDCCFC0E06F
:10034000D0E082E090E030DF81E090E02DDF80E0DF
:1003500090E02ADF83E090E027DF84E090E024DF74
:1003600084E090E021DF83E090E01EDF80E090E019
:100370001BDF81E090E018DF82E090E015DF20973E
:0A03800001F33EDEDECFF894FFCF5C
:0A038A00020001000000030004005F
:00000001FF
