:100000001DC037C036C035C034C0EFC032C031C0AB
:1000100030C02FC02EC02DC02CC02BC02AC0010361
:10002000000004000000000038000000000037005D
:1000300002020202020201020408102011241FBE63
:10004000CFE5D2E0DEBFCDBF10E0A0E6B0E0EEE548
:10005000F3E002C005900D92AA36B107D9F720E06F
:10006000AAE6B0E001C01D92A337B207E1F707D1BD
:1000700074C1C6CF3FB7F89480916F009091700023
:10008000A0917100B091720022B708B601FE05C0C0
:100090002F3F19F00196A11DB11D3FBFBA2FA92F07
:1000A000982F8827BC01CD01620F711D811D911D04
:1000B00043E0660F771F881F991F4A95D1F708956F
:1000C000CF92DF92EF92FF92CF93DF936B017C018F
:1000D000D1DFEB01CFDF6C1B7D0B683E7340A0F0DE
:1000E000C114D104E104F10439F4DF91CF91FF9000
:1000F000EF90DF90CF90089581E0C81AD108E10811
:10010000F108C851DC4FE6CFC114D104E104F10479
:1001100009F7EBCF87FF09C08F7771F1813071F15B
:10012000823071F1833071F18FEF90E0FC01E25E7B
:10013000FF4F3491FC01EA5CFF4F2491FC01E05D2C
:10014000FF4FE491EE23B9F0332329F03130E1F48D
:100150008AB58F778ABDF0E0EE0FFF1FEC5DFF4F91
:10016000A591B4918FB7611120C0F894EC912095BE
:100170002E232C938FBF089585E0D7CF82E0D5CF73
:1001800084E0D3CF83E0D1CF323019F48AB58F7DAC
:10019000E1CF333021F480B78F7D80BFDCCF3430A6
:1001A000D1F68CB58F7D8CBDD6CFF894EC912E2BEB
:1001B000E0CF1F93CF93DF93182FC9E1D0E061E028
:1001C000812FA8DF61E070E080E090E079DF60E0FF
:1001D000812FA0DF63E070E080E090E071DF219785
:1001E00071F7DF91CF911F9108951F920F920FB673
:1001F0000F9211242F933F938F939F93AF93BF93AD
:1002000080916B0090916C00A0916D00B0916E0098
:1002100030916A0026E0230F2D3768F129E8230F7B
:100220000396A11DB11D20936A0080936B009093EB
:100230006C00A0936D00B0936E0080916F00909160
:100240007000A0917100B09172000196A11DB11DC6
:1002500080936F0090937000A0937100B093720030
:10026000BF91AF919F918F913F912F910F900FBEB2
:100270000F901F9018950296A11DB11DD4CF83E059
:100280008ABD83BF789489B7826089BF80E48CBDC2
:100290008FEF8DBD87EC80BF86E886B98FB7F89465
:1002A000B898C0988FBFA0E6B0E080E0AA36B80743
:1002B00009F434C08C91129687FF09C08F7731F111
:1002C000813031F1823031F1833031F18FEF90E0C4
:1002D000FC01EA5CFF4F2491805D9F4FFC018491FB
:1002E000882319F390E0880F991FFC01E65DFF4F0A
:1002F000C591D491FC01EC5DFF4F859194918FB72E
:10030000F894E881E22BE8838FBFCFCF85E0DFCF81
:1003100082E0DDCF84E0DBCF83E0D9CF82E090E0E4
:1003200048DF81E090E045DF90E080E042DF83E05D
:1003300090E03FDF84E090E03CDF84E090E039DF54
:1003400083E090E036DF90E080E033DF81E090E012
:0E03500030DF82E090E02DDFE1CFF894FFCFA8
:0A035E00020001000000030004008B
:00000001FF
