:100000001EC042C041C040C03FC0CEC13DC07CC147
:100010003BC03AC039C038C037C036C035C0010314
:10002000000004000000000038000000000037005D
:10003000020202020202010204081020B20211248C
:100040001FBECFE5D1E0DEBFCDBF20E0A4E8B0E029
:1000500001C01D92A33BB207E1F710E0A0E6B0E0BB
:10006000ECEAF5E002C005900D92A438B107D9F78B
:1000700010E0CFE1D0E003C02197FE018FD2CE3156
:10008000D107D1F7DBD190C2BBCF08952FB7F89439
:10009000FC01458556853AE06095089420F478B3D4
:1000A000752378BB04C078B3742B78BB000076D17D
:1000B00075D174D173D166953A9581F72FBF81E0E0
:1000C00090E00895DC011F96ED91FC912089318923
:1000D000828993892817390779F0A289B389AE0FED
:1000E000BF1F8C91228933892F5F3F4F2F70332799
:1000F000338B228B90E008958FEF9FEF0895DC0102
:100100001F96ED91FC912089318982899389281766
:10011000390739F082899389E80FF91F808190E0CF
:1001200008958FEF9FEF0895DC011F96ED91FC91EC
:100130008089918922893389821B930B8F7099273B
:100140000895CF92DF92EF92FF920F931F93CF9378
:10015000DF936C01EB017B01E40EF51E10E000E083
:10016000CE15DF0561F06991D601ED91FC9101900A
:10017000F081E02DC6010995080F191FF1CFC801C4
:10018000DF91CF911F910F91FF90EF90DF90CF9073
:1001900008953FB7F8948091890090918A00A091CA
:1001A0008B00B0918C0022B708B601FE05C02F3F2E
:1001B00019F00196A11DB11D3FBFBA2FA92F982F8D
:1001C0008827BC01CD01620F711D811D911D43E087
:1001D000660F771F881F991F4A95D1F70895CF9210
:1001E000DF92EF92FF92CF93DF936B017C01D1DF1F
:1001F000EB01CFDF6C1B7D0B683E7340A0F0C11498
:10020000D104E104F10439F4DF91CF91FF90EF9034
:10021000DF90CF90089581E0C81AD108E108F10875
:10022000C851DC4FE6CFC114D104E104F10409F751
:10023000EBCF87FF09C08F7771F1813071F1823088
:1002400071F1833071F18FEF90E0FC01E25EFF4FBE
:100250003491FC01EA5CFF4F2491FC01E05DFF4F0B
:10026000E491EE23B9F0332329F03130E1F48AB57B
:100270008F778ABDF0E0EE0FFF1FEC5DFF4FA59179
:10028000B4918FB7611120C0F894EC9120952E2382
:100290002C938FBF089585E0D7CF82E0D5CF84E03F
:1002A000D3CF83E0D1CF323019F48AB58F7DE1CF3F
:1002B000333021F480B78F7D80BFDCCF3430D1F66E
:1002C0008CB58F7D8CBDD6CFF894EC912E2BE0CFE2
:1002D0001F93CF93DF93182FC9E1D0E061E0812F06
:1002E000A8DF61E070E080E090E079DF60E0812FDE
:1002F000A0DF63E070E080E090E071DF219771F7AC
:10030000DF91CF911F9108951F920F920FB60F9218
:1003100011242F933F934F935F937F938F939F93DA
:10032000AF93BF93EF93FF934091AD0020E038E08F
:1003300035D034D033D032D031D0889476B37423D2
:1003400009F0089427953A9509F0F3CF27D026D0E5
:10035000E091B000F091B1008089918901968F7091
:100360009927428953898417950739F0A089B18963
:10037000AE0FBF1F2C93918B808B449AFF91EF910E
:10038000BF91AF919F918F917F915F914F913F91DD
:100390002F910F900FBE0F901F9018958091B20073
:1003A000982F9A95F1F708951F920F920FB60F921A
:1003B00011242F933F938F939F93AF93BF9380917B
:1003C000850090918600A0918700B09188003091BF
:1003D000840026E0230F2D3768F129E8230F0396C8
:1003E000A11DB11D20938400809385009093860009
:1003F000A0938700B09388008091890090918A0033
:10040000A0918B00B0918C000196A11DB11D80932D
:10041000890090938A00A0938B00B0938C00BF91C9
:10042000AF919F918F913F912F910F900FBE0F90A1
:100430001F9018950296A11DB11DD4CF83E08ABDEF
:1004400083BF789489B7826089BF80E48CBD8FEFC9
:100450008DBD87EC80BF86E886B982E48093B200C8
:100460004398469A4798419A409A87B32091AD00A5
:10047000922F9095982397BB88B3822B88BB97B314
:100480002091AE00922B97BB88B3822B88BB449AF5
:10049000439A49E050E06AE770E081EA90E051DE7B
:1004A0006DE081EA90E0F2DD6AE081EA90E0EEDD65
:1004B000A0E7B0E080E0AA37B80709F434C08C9117
:1004C000129687FF09C08F7731F1813031F1823088
:1004D00031F1833031F18FEF90E0FC01EA5CFF4FA6
:1004E0002491805D9F4FFC018491882319F390E053
:1004F000880F991FFC01E65DFF4FC591D491FC0167
:10050000EC5DFF4F859194918FB7F894E881E22BD1
:10051000E8838FBFCFCF85E0DFCF82E0DDCF84E0FF
:10052000DBCF83E0D9CF90E080E0D2DE81E090E0C5
:10053000CFDE82E090E0CCDE83E090E0C9DE84E0B4
:1005400090E0C6DE84E090E0C3DE83E090E0C0DEB1
:1005500082E090E0BDDE81E090E0BADE90E080E0F5
:10056000B7DEE1CFE1EAF0E01382128288EE93E099
:10057000A0E0B0E084839583A683B78384E690E00F
:10058000918380838DE890E0908B878782E08487D9
:1005900081E085878EEF8687118A0895EE0FFF1F11
:0C05A0000590F491E02D0994F894FFCF31
:1005AC00000000004600A100940062007F0045009E
:1005BC0000000100020003000400534D445F686515
:0405CC0061727400E4
:00000001FF
