:1000000023C03BC03AC039C038C0E9C036C035C093
:1000100034C033C032C031C030C02FC02EC0010246
:100020000000040000000000000000003800000094
:100030000000370002020202020202020202010272
:10004000040810202004100811241FBECFEDCDBFDE
:1000500010E0A0E6B0E0E6E8F3E002C005900D9203
:10006000AA36B107D9F720E0AAE6B0E001C01D9298
:10007000A337B207E1F7FDD084C1C2CF90E0FC0105
:10008000E25EFF4F3491FC01E25CFF4F2491FC01E2
:10009000EC5CFF4FE491EE2339F1332399F03230D9
:1000A00071F028F4313071F48AB58F770AC033309B
:1000B00011F0343039F48CB58F7D8CBD03C08AB516
:1000C0008F7D8ABDF0E0EE0FFF1FE85DFF4FA59129
:1000D000B4918FB7F894EC91611103C020952E2351
:1000E00001C02E2B2C938FBF08953FB7F8948091B9
:1000F0006F0090917000A0917100B091720022B7D2
:1001000008B601FE05C02F3F19F00196A11DB11DD3
:100110003FBFBA2FA92F982F8827820F911DA11DAD
:10012000B11DBC01CD0143E0660F771F881F991FE9
:100130004A95D1F708958F929F92AF92BF92CF9236
:10014000DF92EF92FF926B017C01CFDF4B015C01EC
:10015000C114D104E104F104E9F0C7DFDC01CB01F3
:1001600088199909AA09BB09883E9340A105B105E0
:1001700078F321E0C21AD108E108F10888EE880E70
:1001800083E0981EA11CB11CC114D104E104F10448
:1001900021F7DECFFF90EF90DF90CF90BF90AF9030
:1001A0009F908F9008951F93CF93DF93182FC9E1ED
:1001B000D0E061E0812F62DF61E070E080E090E0FC
:1001C000BADF60E0812F5ADF63E070E080E090E00A
:1001D000B2DF219771F7DF91CF911F9108951F92A0
:1001E0000F920FB60F9211242F933F938F939F93EB
:1001F000AF93BF9380916B0090916C00A0916D00C4
:10020000B0916E0030916A0026E0230F2D3720F464
:100210000296A11DB11D05C029E8230F0396A11D5B
:10022000B11D20936A0080936B0090936C00A093A3
:100230006D00B0936E0080916F0090917000A0915E
:100240007100B09172000196A11DB11D80936F00E5
:1002500090937000A0937100B0937200BF91AF9122
:100260009F918F913F912F910F900FBE0F901F90F4
:10027000189578948AB582608ABD8AB581608ABDF6
:1002800083B7826083BF83B7816083BF89B7826091
:1002900089BF80B7826080BF80B7816080BF329A9B
:1002A000319A3098379A8CB580648CBDE7E4F0E0E1
:1002B0002491EDE3F0E084918823C1F090E0880F71
:1002C000991FFC01E25DFF4FC591D491FC01E85DEF
:1002D000FF4FA591B4919FB7F8948881E22FE095E4
:1002E0008E2388838C91E823EC939FBFA0E6B0E037
:1002F00080E0AA36B80709F18D919D919927FC01FC
:10030000E25CFF4F2491FC01EC5CFF4F8491882359
:1003100079F390E0880F991FFC01E25DFF4FC591D2
:10032000D491FC01E85DFF4F859194918FB7F894CB
:10033000E881E22BE8838FBFDBCFC0E0D0E080E034
:1003400090E031DF81E090E02EDF82E090E02BDF73
:1003500083E090E028DF84E090E025DF84E090E017
:1003600022DF83E090E01FDF82E090E01CDF81E08D
:1003700090E019DF80E090E016DF209701F340DE87
:06038000DECFF894FFCF70
:0A0386000000010002000300040063
:00000001FF
