:100000002AC04EC04DC04CC04BC04AC049C048C0B9
:1000100047C046C045C0F1C1A0C142C041C040C0B8
:100020003FC00000010203040000000000000000C7
:10003000003B00380000003A0037000202020101D4
:1000400001010101010102010204804020100804A5
:1000500002010800D60211241FBECFE5D1E0DEBFA9
:10006000CDBF20E0AAE7B0E001C01D92A93AB207D7
:10007000E1F710E0A0E6B0E0E4EFF5E002C00590A3
:100080000D92AA37B107D9F710E0CBE2D0E003C058
:100090002197FE01A7D2CA32D107D1F7F8D1A8C261
:1000A000AFCF08952FB7F894FC01458556853AE007
:1000B0006095089420F47BB375237BBB04C07BB3AD
:1000C000742B7BBB000093D192D191D190D16695D6
:1000D0003A9581F72FBF81E090E00895DC011F96EB
:1000E000ED91FC91208931898289938928173907FC
:1000F00079F0A289B389AE0FBF1F8C912289338911
:100100002F5F3F4F2F703327338B228B90E0089562
:100110008FEF9FEF0895DC011F96ED91FC912089F0
:100120003189828993892817390739F0828993891F
:10013000E80FF91F808190E008958FEF9FEF0895F9
:10014000DC011F96ED91FC91808991892289338988
:10015000821B930B8F7099270895CF92DF92EF92B5
:10016000FF920F931F93CF93DF936C01EB017B0101
:10017000E40EF51E10E000E0CE15DF0561F0699198
:10018000D601ED91FC910190F081E02DC601099519
:10019000080F191FF1CFC801DF91CF911F910F9167
:1001A000FF90EF90DF90CF9008953FB7F894809143
:1001B0007F0090918000A0918100B091820022B7D1
:1001C00008B600FE05C02F3F19F00196A11DB11D14
:1001D0003FBFBA2FA92F982F8827BC01CD01620FEE
:1001E000711D811D911D43E0660F771F881F991FA8
:1001F0004A95D1F70895CF92DF92EF92FF92CF9375
:10020000DF936B017C01D1DFEB01CFDF6C1B7D0B3A
:10021000683E7340A0F0C114D104E104F10439F444
:10022000DF91CF91FF90EF90DF90CF90089581E024
:10023000C81AD108E108F108C851DC4FE6CFC11453
:10024000D104E104F10409F7EBCF87FF07C0E82FE1
:10025000EF778AE08E1BE83008F08FEF90E0FC012A
:10026000E95BFF4F2491855C9F4FFC0184918823BB
:1002700099F090E0880F991FFC01EB5CFF4FA5916E
:10028000B491FC01E15DFF4F859194918FB7F89493
:10029000EC91E22BEC938FBF089587FF07C0E82F06
:1002A000EF778AE08E1BE83008F08FEF90E0FC01DA
:1002B000EE5DFF4F3491FC01E95BFF4F2491FC019F
:1002C000E55CFF4FE491EE23B9F0332329F03130A0
:1002D000A1F480B78F7780BFF0E0EE0FFF1FE15DE4
:1002E000FF4FA591B4918FB7611117C0F894EC91AD
:1002F00020952E232C938FBF0895323019F480B7A8
:100300008F7DE9CF333021F48FB58F778FBDE4CF68
:10031000343011F78FB58F7DF9CFF894EC912E2BF7
:10032000E9CF1F93CF93DF93182FC9E1D0E061E0AD
:10033000812FB3DF61E070E080E090E05CDF60E09F
:10034000812FABDF63E070E080E090E054DF219725
:1003500071F7DF91CF911F9108951F920F920FB601
:100360000F9211242F933F934F935F937F938F931B
:100370009F93AF93BF93EF93FF934091A30020E02F
:1003800038E035D034D033D032D031D0889479B3FE
:10039000742309F0089427953A9509F0F3CF27D0F4
:1003A00026D0E091A600F091A7008089918901965E
:1003B0008F709927428953898417950739F0A0894E
:1003C000B189AE0FBF1F2C93918B808B449AFF9104
:1003D000EF91BF91AF919F918F917F915F914F91DD
:1003E0003F912F910F900FBE0F901F901895809105
:1003F000A800982F9A95F1F708951F920F920FB6C3
:100400000F9211242F933F938F939F93AF93BF939A
:1004100080917B0090917C00A0917D00B0917E0046
:1004200030917A0026E0230F2D3768F129E8230F59
:100430000396A11DB11D20937A0080937B009093B9
:100440007C00A0937D00B0937E0080917F0090910E
:100450008000A0918100B09182000196A11DB11D84
:1004600080937F0090938000A0938100B0938200DE
:10047000BF91AF919F918F913F912F910F900FBEA0
:100480000F901F9018950296A11DB11DD4CF83E047
:1004900080BF83BF789499B7916099BF91E09FBD69
:1004A0008EBD86E886B982E48093A8004398469A78
:1004B00047984298419A409A8AB32091A300922F7C
:1004C000909598239ABB8BB3822B8BBB9AB32091C8
:1004D000A400922B9ABB8BB3822B8BBB449A439A7A
:1004E00049E050E060E770E087E990E036DE6DE0DB
:1004F00087E990E0D7DD6AE087E990E0D3DD86E028
:10050000A4DE87E0A2DE88E0A0DE89E09EDE8AE04D
:100510009CDE80E09ADE81E098DE60E080E0BDDE77
:1005200060E081E0BADE86E090E0FBDE87E090E00C
:10053000F8DE88E090E0F5DE89E090E0F2DE8AE027
:1005400090E0EFDE8AE090E0ECDE89E090E0E9DE2A
:1005500088E090E0E6DE87E090E0E3DE86E090E091
:10056000E0DE61E080E099DE61E081E096DE86E039
:1005700090E0D7DE87E090E0D4DE88E090E0D1DE46
:1005800089E090E0CEDE8AE090E0CBDE8AE090E089
:10059000C8DE89E090E0C5DE88E090E0C2DE87E05A
:1005A00090E0BFDE86E090E0BCDEB7CFE7E9F0E0A8
:1005B0001382128288EE93E0A0E0B0E084839583FA
:1005C000A683B78384E690E09183808383E890E0FC
:1005D000908B878784E0848782E085878DEF86878C
:1005E000118A0895EE0FFF1F0590F491E02D0994F4
:0405F000F894FFCFAD
:1005F400000000005200AD00A0006E008B0051000E
:0A060400534D445F68656172740095
:00000001FF
